{
  "_format": "hh-sol-artifact-1",
  "contractName": "Traceability",
  "sourceName": "contracts/Traceability.sol",
  "abi": [
    {
      "inputs": [],
      "stateMutability": "nonpayable",
      "type": "constructor"
    },
    {
      "anonymous": false,
      "inputs": [
        {
          "indexed": false,
          "internalType": "uint256",
          "name": "shipmentId",
          "type": "uint256"
        },
        {
          "indexed": false,
          "internalType": "string",
          "name": "productId",
          "type": "string"
        },
        {
          "indexed": false,
          "internalType": "string",
          "name": "productName",
          "type": "string"
        },
        {
          "indexed": false,
          "internalType": "string",
          "name": "category",
          "type": "string"
        },
        {
          "indexed": false,
          "internalType": "string",
          "name": "from",
          "type": "string"
        },
        {
          "indexed": false,
          "internalType": "string",
          "name": "to",
          "type": "string"
        },
        {
          "indexed": false,
          "internalType": "uint256",
          "name": "dateAdded",
          "type": "uint256"
        },
        {
          "indexed": false,
          "internalType": "string",
          "name": "status",
          "type": "string"
        }
      ],
      "name": "ShipmentAdded",
      "type": "event"
    },
    {
      "stateMutability": "payable",
      "type": "fallback"
    },
    {
      "inputs": [
        {
          "internalType": "uint256",
          "name": "_shipmentId",
          "type": "uint256"
        },
        {
          "internalType": "string",
          "name": "_productId",
          "type": "string"
        },
        {
          "internalType": "string",
          "name": "_productName",
          "type": "string"
        },
        {
          "internalType": "string",
          "name": "_category",
          "type": "string"
        },
        {
          "internalType": "string",
          "name": "_from",
          "type": "string"
        },
        {
          "internalType": "string",
          "name": "_to",
          "type": "string"
        },
        {
          "internalType": "uint256",
          "name": "_dateAdded",
          "type": "uint256"
        },
        {
          "internalType": "string",
          "name": "_status",
          "type": "string"
        }
      ],
      "name": "addShipment",
      "outputs": [],
      "stateMutability": "nonpayable",
      "type": "function"
    },
    {
      "inputs": [
        {
          "internalType": "uint256",
          "name": "_shipmentId",
          "type": "uint256"
        }
      ],
      "name": "getShipment",
      "outputs": [
        {
          "internalType": "string",
          "name": "",
          "type": "string"
        },
        {
          "internalType": "string",
          "name": "",
          "type": "string"
        },
        {
          "internalType": "string",
          "name": "",
          "type": "string"
        },
        {
          "internalType": "string",
          "name": "",
          "type": "string"
        },
        {
          "internalType": "string",
          "name": "",
          "type": "string"
        },
        {
          "internalType": "uint256",
          "name": "",
          "type": "uint256"
        },
        {
          "internalType": "string",
          "name": "",
          "type": "string"
        }
      ],
      "stateMutability": "view",
      "type": "function"
    },
    {
      "inputs": [],
      "name": "owner",
      "outputs": [
        {
          "internalType": "address",
          "name": "",
          "type": "address"
        }
      ],
      "stateMutability": "view",
      "type": "function"
    },
    {
      "inputs": [
        {
          "internalType": "uint256",
          "name": "",
          "type": "uint256"
        },
        {
          "internalType": "uint256",
          "name": "",
          "type": "uint256"
        }
      ],
      "name": "shipments",
      "outputs": [
        {
          "internalType": "uint256",
          "name": "shipmentId",
          "type": "uint256"
        },
        {
          "internalType": "string",
          "name": "productId",
          "type": "string"
        },
        {
          "internalType": "string",
          "name": "productName",
          "type": "string"
        },
        {
          "internalType": "string",
          "name": "category",
          "type": "string"
        },
        {
          "internalType": "string",
          "name": "from",
          "type": "string"
        },
        {
          "internalType": "string",
          "name": "to",
          "type": "string"
        },
        {
          "internalType": "uint256",
          "name": "dateAdded",
          "type": "uint256"
        },
        {
          "internalType": "string",
          "name": "status",
          "type": "string"
        }
      ],
      "stateMutability": "view",
      "type": "function"
    },
    {
      "inputs": [],
      "name": "shipmentsCount",
      "outputs": [
        {
          "internalType": "uint256",
          "name": "",
          "type": "uint256"
        }
      ],
      "stateMutability": "view",
      "type": "function"
    }
  ],
  "bytecode": "0x608060405234801561001057600080fd5b50336000806101000a81548173ffffffffffffffffffffffffffffffffffffffff021916908373ffffffffffffffffffffffffffffffffffffffff160217905550611487806100606000396000f3fe60806040526004361061004e5760003560e01c8063092b374014610051578063642ffca81461009457806367cecd87146100d85780638784adca146101035780638da5cb5b1461012c5761004f565b5b005b34801561005d57600080fd5b5061007860048036038101906100739190610b45565b610157565b60405161008b9796959493929190610c11565b60405180910390f35b3480156100a057600080fd5b506100bb60048036038101906100b69190610caa565b61054f565b6040516100cf989796959493929190610cea565b60405180910390f35b3480156100e457600080fd5b506100ed6108e4565b6040516100fa9190610d92565b60405180910390f35b34801561010f57600080fd5b5061012a60048036038101906101259190610ee2565b6108ea565b005b34801561013857600080fd5b50610141610ad7565b60405161014e9190611081565b60405180910390f35b60608060608060606000606060008860405160200161017691906110bd565b6040516020818303038152906040528051906020012060001c905060006001600083815260200190815260200160002090506000816000815481106101be576101bd6110d8565b5b9060005260206000209060080201905080600101816002018260030183600401846005018560060154866007018680546101f790611136565b80601f016020809104026020016040519081016040528092919081815260200182805461022390611136565b80156102705780601f1061024557610100808354040283529160200191610270565b820191906000526020600020905b81548152906001019060200180831161025357829003601f168201915b5050505050965085805461028390611136565b80601f01602080910402602001604051908101604052809291908181526020018280546102af90611136565b80156102fc5780601f106102d1576101008083540402835291602001916102fc565b820191906000526020600020905b8154815290600101906020018083116102df57829003601f168201915b5050505050955084805461030f90611136565b80601f016020809104026020016040519081016040528092919081815260200182805461033b90611136565b80156103885780601f1061035d57610100808354040283529160200191610388565b820191906000526020600020905b81548152906001019060200180831161036b57829003601f168201915b5050505050945083805461039b90611136565b80601f01602080910402602001604051908101604052809291908181526020018280546103c790611136565b80156104145780601f106103e957610100808354040283529160200191610414565b820191906000526020600020905b8154815290600101906020018083116103f757829003601f168201915b5050505050935082805461042790611136565b80601f016020809104026020016040519081016040528092919081815260200182805461045390611136565b80156104a05780601f10610475576101008083540402835291602001916104a0565b820191906000526020600020905b81548152906001019060200180831161048357829003601f168201915b505050505092508080546104b390611136565b80601f01602080910402602001604051908101604052809291908181526020018280546104df90611136565b801561052c5780601f106105015761010080835404028352916020019161052c565b820191906000526020600020905b81548152906001019060200180831161050f57829003601f168201915b505050505090509950995099509950995099509950505050919395979092949650565b6001602052816000526040600020818154811061056b57600080fd5b90600052602060002090600802016000915091505080600001549080600101805461059590611136565b80601f01602080910402602001604051908101604052809291908181526020018280546105c190611136565b801561060e5780601f106105e35761010080835404028352916020019161060e565b820191906000526020600020905b8154815290600101906020018083116105f157829003601f168201915b50505050509080600201805461062390611136565b80601f016020809104026020016040519081016040528092919081815260200182805461064f90611136565b801561069c5780601f106106715761010080835404028352916020019161069c565b820191906000526020600020905b81548152906001019060200180831161067f57829003601f168201915b5050505050908060030180546106b190611136565b80601f01602080910402602001604051908101604052809291908181526020018280546106dd90611136565b801561072a5780601f106106ff5761010080835404028352916020019161072a565b820191906000526020600020905b81548152906001019060200180831161070d57829003601f168201915b50505050509080600401805461073f90611136565b80601f016020809104026020016040519081016040528092919081815260200182805461076b90611136565b80156107b85780601f1061078d576101008083540402835291602001916107b8565b820191906000526020600020905b81548152906001019060200180831161079b57829003601f168201915b5050505050908060050180546107cd90611136565b80601f01602080910402602001604051908101604052809291908181526020018280546107f990611136565b80156108465780601f1061081b57610100808354040283529160200191610846565b820191906000526020600020905b81548152906001019060200180831161082957829003601f168201915b50505050509080600601549080600701805461086190611136565b80601f016020809104026020016040519081016040528092919081815260200182805461088d90611136565b80156108da5780601f106108af576101008083540402835291602001916108da565b820191906000526020600020905b8154815290600101906020018083116108bd57829003601f168201915b5050505050905088565b60025481565b6000886040516020016108fd91906110bd565b6040516020818303038152906040528051906020012060001c90506000600160008381526020019081526020016000208054905014610971576040517f08c379a0000000000000000000000000000000000000000000000000000000008152600401610968906111b3565b60405180910390fd5b60006040518061010001604052808b81526020018a815260200189815260200188815260200187815260200186815260200185815260200184815250905060016000838152602001908152602001600020819080600181540180825580915050600190039060005260206000209060080201600090919091909150600082015181600001556020820151816001019081610a0b919061137f565b506040820151816002019081610a21919061137f565b506060820151816003019081610a37919061137f565b506080820151816004019081610a4d919061137f565b5060a0820151816005019081610a63919061137f565b5060c0820151816006015560e0820151816007019081610a83919061137f565b5050507ffafbe476b1cff13486dfe4eaf944f9f58cc841a56e2c83bdd152f1d1985bfd658a8a8a8a8a8a8a8a604051610ac3989796959493929190610cea565b60405180910390a150505050505050505050565b60008054906101000a900473ffffffffffffffffffffffffffffffffffffffff1681565b6000604051905090565b600080fd5b600080fd5b6000819050919050565b610b2281610b0f565b8114610b2d57600080fd5b50565b600081359050610b3f81610b19565b92915050565b600060208284031215610b5b57610b5a610b05565b5b6000610b6984828501610b30565b91505092915050565b600081519050919050565b600082825260208201905092915050565b60005b83811015610bac578082015181840152602081019050610b91565b60008484015250505050565b6000601f19601f8301169050919050565b6000610bd482610b72565b610bde8185610b7d565b9350610bee818560208601610b8e565b610bf781610bb8565b840191505092915050565b610c0b81610b0f565b82525050565b600060e0820190508181036000830152610c2b818a610bc9565b90508181036020830152610c3f8189610bc9565b90508181036040830152610c538188610bc9565b90508181036060830152610c678187610bc9565b90508181036080830152610c7b8186610bc9565b9050610c8a60a0830185610c02565b81810360c0830152610c9c8184610bc9565b905098975050505050505050565b60008060408385031215610cc157610cc0610b05565b5b6000610ccf85828601610b30565b9250506020610ce085828601610b30565b9150509250929050565b600061010082019050610d00600083018b610c02565b8181036020830152610d12818a610bc9565b90508181036040830152610d268189610bc9565b90508181036060830152610d3a8188610bc9565b90508181036080830152610d4e8187610bc9565b905081810360a0830152610d628186610bc9565b9050610d7160c0830185610c02565b81810360e0830152610d838184610bc9565b90509998505050505050505050565b6000602082019050610da76000830184610c02565b92915050565b600080fd5b600080fd5b7f4e487b7100000000000000000000000000000000000000000000000000000000600052604160045260246000fd5b610def82610bb8565b810181811067ffffffffffffffff82111715610e0e57610e0d610db7565b5b80604052505050565b6000610e21610afb565b9050610e2d8282610de6565b919050565b600067ffffffffffffffff821115610e4d57610e4c610db7565b5b610e5682610bb8565b9050602081019050919050565b82818337600083830152505050565b6000610e85610e8084610e32565b610e17565b905082815260208101848484011115610ea157610ea0610db2565b5b610eac848285610e63565b509392505050565b600082601f830112610ec957610ec8610dad565b5b8135610ed9848260208601610e72565b91505092915050565b600080600080600080600080610100898b031215610f0357610f02610b05565b5b6000610f118b828c01610b30565b985050602089013567ffffffffffffffff811115610f3257610f31610b0a565b5b610f3e8b828c01610eb4565b975050604089013567ffffffffffffffff811115610f5f57610f5e610b0a565b5b610f6b8b828c01610eb4565b965050606089013567ffffffffffffffff811115610f8c57610f8b610b0a565b5b610f988b828c01610eb4565b955050608089013567ffffffffffffffff811115610fb957610fb8610b0a565b5b610fc58b828c01610eb4565b94505060a089013567ffffffffffffffff811115610fe657610fe5610b0a565b5b610ff28b828c01610eb4565b93505060c06110038b828c01610b30565b92505060e089013567ffffffffffffffff81111561102457611023610b0a565b5b6110308b828c01610eb4565b9150509295985092959890939650565b600073ffffffffffffffffffffffffffffffffffffffff82169050919050565b600061106b82611040565b9050919050565b61107b81611060565b82525050565b60006020820190506110966000830184611072565b92915050565b6000819050919050565b6110b76110b282610b0f565b61109c565b82525050565b60006110c982846110a6565b60208201915081905092915050565b7f4e487b7100000000000000000000000000000000000000000000000000000000600052603260045260246000fd5b7f4e487b7100000000000000000000000000000000000000000000000000000000600052602260045260246000fd5b6000600282049050600182168061114e57607f821691505b60208210810361116157611160611107565b5b50919050565b7f536869706d656e7420494420616c726561647920657869737473000000000000600082015250565b600061119d601a83610b7d565b91506111a882611167565b602082019050919050565b600060208201905081810360008301526111cc81611190565b9050919050565b60008190508160005260206000209050919050565b60006020601f8301049050919050565b600082821b905092915050565b6000600883026112357fffffffffffffffffffffffffffffffffffffffffffffffffffffffffffffffff826111f8565b61123f86836111f8565b95508019841693508086168417925050509392505050565b6000819050919050565b600061127c61127761127284610b0f565b611257565b610b0f565b9050919050565b6000819050919050565b61129683611261565b6112aa6112a282611283565b848454611205565b825550505050565b600090565b6112bf6112b2565b6112ca81848461128d565b505050565b5b818110156112ee576112e36000826112b7565b6001810190506112d0565b5050565b601f82111561133357611304816111d3565b61130d846111e8565b8101602085101561131c578190505b611330611328856111e8565b8301826112cf565b50505b505050565b600082821c905092915050565b600061135660001984600802611338565b1980831691505092915050565b600061136f8383611345565b9150826002028217905092915050565b61138882610b72565b67ffffffffffffffff8111156113a1576113a0610db7565b5b6113ab8254611136565b6113b68282856112f2565b600060209050601f8311600181146113e957600084156113d7578287015190505b6113e18582611363565b865550611449565b601f1984166113f7866111d3565b60005b8281101561141f578489015182556001820191506020850194506020810190506113fa565b8683101561143c5784890151611438601f891682611345565b8355505b6001600288020188555050505b50505050505056fea2646970667358221220cc5ac679fdf336fbff853c6a9c4ddaf2be2427ef0807116eead307bcb598b4db64736f6c63430008130033",
  "linkReferences": {},
  "deployedLinkReferences": {}
}