{
  "_format": "hh-sol-artifact-1",
  "contractName": "Traceability",
  "sourceName": "contracts/Traceability.sol",
  "abi": [
    {
      "inputs": [],
      "stateMutability": "nonpayable",
      "type": "constructor"
    },
    {
      "anonymous": false,
      "inputs": [
        {
          "indexed": false,
          "internalType": "string",
          "name": "productId",
          "type": "string"
        },
        {
          "indexed": false,
          "internalType": "string",
          "name": "productName",
          "type": "string"
        },
        {
          "indexed": false,
          "internalType": "string",
          "name": "category",
          "type": "string"
        },
        {
          "indexed": false,
          "internalType": "string",
          "name": "from",
          "type": "string"
        },
        {
          "indexed": false,
          "internalType": "string",
          "name": "to",
          "type": "string"
        },
        {
          "indexed": false,
          "internalType": "string",
          "name": "dateAdded",
          "type": "string"
        },
        {
          "indexed": false,
          "internalType": "string",
          "name": "status",
          "type": "string"
        }
      ],
      "name": "ShipmentAdded",
      "type": "event"
    },
    {
      "stateMutability": "payable",
      "type": "fallback"
    },
    {
      "inputs": [
        {
          "internalType": "string",
          "name": "_productId",
          "type": "string"
        },
        {
          "internalType": "string",
          "name": "_productName",
          "type": "string"
        },
        {
          "internalType": "string",
          "name": "_category",
          "type": "string"
        },
        {
          "internalType": "string",
          "name": "_from",
          "type": "string"
        },
        {
          "internalType": "string",
          "name": "_to",
          "type": "string"
        },
        {
          "internalType": "string",
          "name": "_dateAdded",
          "type": "string"
        },
        {
          "internalType": "string",
          "name": "_status",
          "type": "string"
        }
      ],
      "name": "addShipment",
      "outputs": [],
      "stateMutability": "nonpayable",
      "type": "function"
    },
    {
      "inputs": [
        {
          "internalType": "string",
          "name": "_productId",
          "type": "string"
        }
      ],
      "name": "getShipment",
      "outputs": [
        {
          "internalType": "string",
          "name": "",
          "type": "string"
        },
        {
          "internalType": "string",
          "name": "",
          "type": "string"
        },
        {
          "internalType": "string",
          "name": "",
          "type": "string"
        },
        {
          "internalType": "string",
          "name": "",
          "type": "string"
        },
        {
          "internalType": "string",
          "name": "",
          "type": "string"
        },
        {
          "internalType": "string",
          "name": "",
          "type": "string"
        },
        {
          "internalType": "string",
          "name": "",
          "type": "string"
        }
      ],
      "stateMutability": "view",
      "type": "function"
    },
    {
      "inputs": [
        {
          "internalType": "uint256",
          "name": "",
          "type": "uint256"
        },
        {
          "internalType": "uint256",
          "name": "",
          "type": "uint256"
        }
      ],
      "name": "shipments",
      "outputs": [
        {
          "internalType": "string",
          "name": "productId",
          "type": "string"
        },
        {
          "internalType": "string",
          "name": "productName",
          "type": "string"
        },
        {
          "internalType": "string",
          "name": "category",
          "type": "string"
        },
        {
          "internalType": "string",
          "name": "from",
          "type": "string"
        },
        {
          "internalType": "string",
          "name": "to",
          "type": "string"
        },
        {
          "internalType": "string",
          "name": "dateAdded",
          "type": "string"
        },
        {
          "internalType": "string",
          "name": "status",
          "type": "string"
        }
      ],
      "stateMutability": "view",
      "type": "function"
    },
    {
      "inputs": [],
      "name": "shipmentsCount",
      "outputs": [
        {
          "internalType": "uint256",
          "name": "",
          "type": "uint256"
        }
      ],
      "stateMutability": "view",
      "type": "function"
    }
  ],
  "bytecode": "0x608060405234801561001057600080fd5b506113a7806100206000396000f3fe6080604052600436106100435760003560e01c8063642ffca81461004657806367cecd8714610089578063bfa59764146100b4578063da34f3d5146100dd57610044565b5b005b34801561005257600080fd5b5061006d60048036038101906100689190610b93565b610120565b6040516100809796959493929190610c63565b60405180910390f35b34801561009557600080fd5b5061009e610537565b6040516100ab9190610d12565b60405180910390f35b3480156100c057600080fd5b506100db60048036038101906100d69190610e62565b61053d565b005b3480156100e957600080fd5b5061010460048036038101906100ff9190610fc8565b6106c8565b6040516101179796959493929190610c63565b60405180910390f35b6000602052816000526040600020818154811061013c57600080fd5b90600052602060002090600702016000915091505080600001805461016090611040565b80601f016020809104026020016040519081016040528092919081815260200182805461018c90611040565b80156101d95780601f106101ae576101008083540402835291602001916101d9565b820191906000526020600020905b8154815290600101906020018083116101bc57829003601f168201915b5050505050908060010180546101ee90611040565b80601f016020809104026020016040519081016040528092919081815260200182805461021a90611040565b80156102675780601f1061023c57610100808354040283529160200191610267565b820191906000526020600020905b81548152906001019060200180831161024a57829003601f168201915b50505050509080600201805461027c90611040565b80601f01602080910402602001604051908101604052809291908181526020018280546102a890611040565b80156102f55780601f106102ca576101008083540402835291602001916102f5565b820191906000526020600020905b8154815290600101906020018083116102d857829003601f168201915b50505050509080600301805461030a90611040565b80601f016020809104026020016040519081016040528092919081815260200182805461033690611040565b80156103835780601f1061035857610100808354040283529160200191610383565b820191906000526020600020905b81548152906001019060200180831161036657829003601f168201915b50505050509080600401805461039890611040565b80601f01602080910402602001604051908101604052809291908181526020018280546103c490611040565b80156104115780601f106103e657610100808354040283529160200191610411565b820191906000526020600020905b8154815290600101906020018083116103f457829003601f168201915b50505050509080600501805461042690611040565b80601f016020809104026020016040519081016040528092919081815260200182805461045290611040565b801561049f5780601f106104745761010080835404028352916020019161049f565b820191906000526020600020905b81548152906001019060200180831161048257829003601f168201915b5050505050908060060180546104b490611040565b80601f01602080910402602001604051908101604052809291908181526020018280546104e090611040565b801561052d5780601f106105025761010080835404028352916020019161052d565b820191906000526020600020905b81548152906001019060200180831161051057829003601f168201915b5050505050905087565b60015481565b60008760405160200161055091906110ad565b6040516020818303038152906040528051906020012060001c905060006040518060e001604052808a815260200189815260200188815260200187815260200186815260200185815260200184815250905060008083815260200190815260200160002081908060018154018082558091505060019003906000526020600020906007020160009091909190915060008201518160000190816105f39190611270565b5060208201518160010190816106099190611270565b50604082015181600201908161061f9190611270565b5060608201518160030190816106359190611270565b50608082015181600401908161064b9190611270565b5060a08201518160050190816106619190611270565b5060c08201518160060190816106779190611270565b5050507fdcd531375f38ce09cfdadc92203a5f7c848e7eddc6e9022a6eba9dc8f4f394fb898989898989896040516106b59796959493929190610c63565b60405180910390a1505050505050505050565b60608060608060608060606000886040516020016106e691906110ad565b6040516020818303038152906040528051906020012060001c90506000806000838152602001908152602001600020905060008160008154811061072d5761072c611342565b5b906000526020600020906007020190508060000181600101826002018360030184600401856005018660060186805461076590611040565b80601f016020809104026020016040519081016040528092919081815260200182805461079190611040565b80156107de5780601f106107b3576101008083540402835291602001916107de565b820191906000526020600020905b8154815290600101906020018083116107c157829003601f168201915b505050505096508580546107f190611040565b80601f016020809104026020016040519081016040528092919081815260200182805461081d90611040565b801561086a5780601f1061083f5761010080835404028352916020019161086a565b820191906000526020600020905b81548152906001019060200180831161084d57829003601f168201915b5050505050955084805461087d90611040565b80601f01602080910402602001604051908101604052809291908181526020018280546108a990611040565b80156108f65780601f106108cb576101008083540402835291602001916108f6565b820191906000526020600020905b8154815290600101906020018083116108d957829003601f168201915b5050505050945083805461090990611040565b80601f016020809104026020016040519081016040528092919081815260200182805461093590611040565b80156109825780601f1061095757610100808354040283529160200191610982565b820191906000526020600020905b81548152906001019060200180831161096557829003601f168201915b5050505050935082805461099590611040565b80601f01602080910402602001604051908101604052809291908181526020018280546109c190611040565b8015610a0e5780601f106109e357610100808354040283529160200191610a0e565b820191906000526020600020905b8154815290600101906020018083116109f157829003601f168201915b50505050509250818054610a2190611040565b80601f0160208091040260200160405190810160405280929190818152602001828054610a4d90611040565b8015610a9a5780601f10610a6f57610100808354040283529160200191610a9a565b820191906000526020600020905b815481529060010190602001808311610a7d57829003601f168201915b50505050509150808054610aad90611040565b80601f0160208091040260200160405190810160405280929190818152602001828054610ad990611040565b8015610b265780601f10610afb57610100808354040283529160200191610b26565b820191906000526020600020905b815481529060010190602001808311610b0957829003601f168201915b505050505090509950995099509950995099509950505050919395979092949650565b6000604051905090565b600080fd5b600080fd5b6000819050919050565b610b7081610b5d565b8114610b7b57600080fd5b50565b600081359050610b8d81610b67565b92915050565b60008060408385031215610baa57610ba9610b53565b5b6000610bb885828601610b7e565b9250506020610bc985828601610b7e565b9150509250929050565b600081519050919050565b600082825260208201905092915050565b60005b83811015610c0d578082015181840152602081019050610bf2565b60008484015250505050565b6000601f19601f8301169050919050565b6000610c3582610bd3565b610c3f8185610bde565b9350610c4f818560208601610bef565b610c5881610c19565b840191505092915050565b600060e0820190508181036000830152610c7d818a610c2a565b90508181036020830152610c918189610c2a565b90508181036040830152610ca58188610c2a565b90508181036060830152610cb98187610c2a565b90508181036080830152610ccd8186610c2a565b905081810360a0830152610ce18185610c2a565b905081810360c0830152610cf58184610c2a565b905098975050505050505050565b610d0c81610b5d565b82525050565b6000602082019050610d276000830184610d03565b92915050565b600080fd5b600080fd5b7f4e487b7100000000000000000000000000000000000000000000000000000000600052604160045260246000fd5b610d6f82610c19565b810181811067ffffffffffffffff82111715610d8e57610d8d610d37565b5b80604052505050565b6000610da1610b49565b9050610dad8282610d66565b919050565b600067ffffffffffffffff821115610dcd57610dcc610d37565b5b610dd682610c19565b9050602081019050919050565b82818337600083830152505050565b6000610e05610e0084610db2565b610d97565b905082815260208101848484011115610e2157610e20610d32565b5b610e2c848285610de3565b509392505050565b600082601f830112610e4957610e48610d2d565b5b8135610e59848260208601610df2565b91505092915050565b600080600080600080600060e0888a031215610e8157610e80610b53565b5b600088013567ffffffffffffffff811115610e9f57610e9e610b58565b5b610eab8a828b01610e34565b975050602088013567ffffffffffffffff811115610ecc57610ecb610b58565b5b610ed88a828b01610e34565b965050604088013567ffffffffffffffff811115610ef957610ef8610b58565b5b610f058a828b01610e34565b955050606088013567ffffffffffffffff811115610f2657610f25610b58565b5b610f328a828b01610e34565b945050608088013567ffffffffffffffff811115610f5357610f52610b58565b5b610f5f8a828b01610e34565b93505060a088013567ffffffffffffffff811115610f8057610f7f610b58565b5b610f8c8a828b01610e34565b92505060c088013567ffffffffffffffff811115610fad57610fac610b58565b5b610fb98a828b01610e34565b91505092959891949750929550565b600060208284031215610fde57610fdd610b53565b5b600082013567ffffffffffffffff811115610ffc57610ffb610b58565b5b61100884828501610e34565b91505092915050565b7f4e487b7100000000000000000000000000000000000000000000000000000000600052602260045260246000fd5b6000600282049050600182168061105857607f821691505b60208210810361106b5761106a611011565b5b50919050565b600081905092915050565b600061108782610bd3565b6110918185611071565b93506110a1818560208601610bef565b80840191505092915050565b60006110b9828461107c565b915081905092915050565b60008190508160005260206000209050919050565b60006020601f8301049050919050565b600082821b905092915050565b6000600883026111267fffffffffffffffffffffffffffffffffffffffffffffffffffffffffffffffff826110e9565b61113086836110e9565b95508019841693508086168417925050509392505050565b6000819050919050565b600061116d61116861116384610b5d565b611148565b610b5d565b9050919050565b6000819050919050565b61118783611152565b61119b61119382611174565b8484546110f6565b825550505050565b600090565b6111b06111a3565b6111bb81848461117e565b505050565b5b818110156111df576111d46000826111a8565b6001810190506111c1565b5050565b601f821115611224576111f5816110c4565b6111fe846110d9565b8101602085101561120d578190505b611221611219856110d9565b8301826111c0565b50505b505050565b600082821c905092915050565b600061124760001984600802611229565b1980831691505092915050565b60006112608383611236565b9150826002028217905092915050565b61127982610bd3565b67ffffffffffffffff81111561129257611291610d37565b5b61129c8254611040565b6112a78282856111e3565b600060209050601f8311600181146112da57600084156112c8578287015190505b6112d28582611254565b86555061133a565b601f1984166112e8866110c4565b60005b82811015611310578489015182556001820191506020850194506020810190506112eb565b8683101561132d5784890151611329601f891682611236565b8355505b6001600288020188555050505b505050505050565b7f4e487b7100000000000000000000000000000000000000000000000000000000600052603260045260246000fdfea26469706673582212204bea3c7a0fc6983caddcf8b3f4881ae9f250cb9eaa5a146e53b1367a47bb2e6a64736f6c63430008130033",
  "linkReferences": {},
  "deployedLinkReferences": {}
}