{
  "_format": "hh-sol-artifact-1",
  "contractName": "Traceability",
  "sourceName": "contracts/Traceability.sol",
  "abi": [
    {
      "inputs": [],
      "stateMutability": "nonpayable",
      "type": "constructor"
    },
    {
      "anonymous": false,
      "inputs": [
        {
          "indexed": false,
          "internalType": "uint256",
          "name": "shipmentId",
          "type": "uint256"
        },
        {
          "indexed": false,
          "internalType": "string",
          "name": "productId",
          "type": "string"
        },
        {
          "indexed": false,
          "internalType": "string",
          "name": "productName",
          "type": "string"
        },
        {
          "indexed": false,
          "internalType": "string",
          "name": "category",
          "type": "string"
        },
        {
          "indexed": false,
          "internalType": "string",
          "name": "from",
          "type": "string"
        },
        {
          "indexed": false,
          "internalType": "string",
          "name": "to",
          "type": "string"
        },
        {
          "indexed": false,
          "internalType": "string",
          "name": "dateAdded",
          "type": "string"
        },
        {
          "indexed": false,
          "internalType": "string",
          "name": "status",
          "type": "string"
        }
      ],
      "name": "ShipmentAdded",
      "type": "event"
    },
    {
      "stateMutability": "payable",
      "type": "fallback"
    },
    {
      "inputs": [
        {
          "internalType": "uint256",
          "name": "_shipmentId",
          "type": "uint256"
        },
        {
          "internalType": "string",
          "name": "_productId",
          "type": "string"
        },
        {
          "internalType": "string",
          "name": "_productName",
          "type": "string"
        },
        {
          "internalType": "string",
          "name": "_category",
          "type": "string"
        },
        {
          "internalType": "string",
          "name": "_from",
          "type": "string"
        },
        {
          "internalType": "string",
          "name": "_to",
          "type": "string"
        },
        {
          "internalType": "string",
          "name": "_dateAdded",
          "type": "string"
        },
        {
          "internalType": "string",
          "name": "_status",
          "type": "string"
        }
      ],
      "name": "addShipment",
      "outputs": [],
      "stateMutability": "nonpayable",
      "type": "function"
    },
    {
      "inputs": [
        {
          "internalType": "uint256",
          "name": "_shipmentId",
          "type": "uint256"
        }
      ],
      "name": "getShipment",
      "outputs": [
        {
          "internalType": "uint256",
          "name": "",
          "type": "uint256"
        },
        {
          "internalType": "string",
          "name": "",
          "type": "string"
        },
        {
          "internalType": "string",
          "name": "",
          "type": "string"
        },
        {
          "internalType": "string",
          "name": "",
          "type": "string"
        },
        {
          "internalType": "string",
          "name": "",
          "type": "string"
        },
        {
          "internalType": "string",
          "name": "",
          "type": "string"
        },
        {
          "internalType": "string",
          "name": "",
          "type": "string"
        },
        {
          "internalType": "string",
          "name": "",
          "type": "string"
        }
      ],
      "stateMutability": "view",
      "type": "function"
    },
    {
      "inputs": [
        {
          "internalType": "uint256",
          "name": "",
          "type": "uint256"
        },
        {
          "internalType": "uint256",
          "name": "",
          "type": "uint256"
        }
      ],
      "name": "shipments",
      "outputs": [
        {
          "internalType": "uint256",
          "name": "shipmentId",
          "type": "uint256"
        },
        {
          "internalType": "string",
          "name": "productId",
          "type": "string"
        },
        {
          "internalType": "string",
          "name": "productName",
          "type": "string"
        },
        {
          "internalType": "string",
          "name": "category",
          "type": "string"
        },
        {
          "internalType": "string",
          "name": "from",
          "type": "string"
        },
        {
          "internalType": "string",
          "name": "to",
          "type": "string"
        },
        {
          "internalType": "string",
          "name": "dateAdded",
          "type": "string"
        },
        {
          "internalType": "string",
          "name": "status",
          "type": "string"
        }
      ],
      "stateMutability": "view",
      "type": "function"
    },
    {
      "inputs": [],
      "name": "shipmentsCount",
      "outputs": [
        {
          "internalType": "uint256",
          "name": "",
          "type": "uint256"
        }
      ],
      "stateMutability": "view",
      "type": "function"
    }
  ],
  "bytecode": "0x608060405234801561001057600080fd5b50611480806100206000396000f3fe6080604052600436106100435760003560e01c8063092b374014610046578063576e48981461008a578063642ffca8146100b357806367cecd87146100f757610044565b5b005b34801561005257600080fd5b5061006d60048036038101906100689190610c10565b610122565b604051610081989796959493929190610cdc565b60405180910390f35b34801561009657600080fd5b506100b160048036038101906100ac9190610ec0565b6105ac565b005b3480156100bf57600080fd5b506100da60048036038101906100d5919061103a565b6107a3565b6040516100ee989796959493929190610cdc565b60405180910390f35b34801561010357600080fd5b5061010c610bc0565b604051610119919061107a565b60405180910390f35b6000606080606080606080606060008960405160200161014291906110b6565b6040516020818303038152906040528051906020012060001c905060008060008381526020019081526020016000209050600081600081548110610189576101886110d1565b5b906000526020600020906008020190508060000154816001018260020183600301846004018560050186600601876007018680546101c69061112f565b80601f01602080910402602001604051908101604052809291908181526020018280546101f29061112f565b801561023f5780601f106102145761010080835404028352916020019161023f565b820191906000526020600020905b81548152906001019060200180831161022257829003601f168201915b505050505096508580546102529061112f565b80601f016020809104026020016040519081016040528092919081815260200182805461027e9061112f565b80156102cb5780601f106102a0576101008083540402835291602001916102cb565b820191906000526020600020905b8154815290600101906020018083116102ae57829003601f168201915b505050505095508480546102de9061112f565b80601f016020809104026020016040519081016040528092919081815260200182805461030a9061112f565b80156103575780601f1061032c57610100808354040283529160200191610357565b820191906000526020600020905b81548152906001019060200180831161033a57829003601f168201915b5050505050945083805461036a9061112f565b80601f01602080910402602001604051908101604052809291908181526020018280546103969061112f565b80156103e35780601f106103b8576101008083540402835291602001916103e3565b820191906000526020600020905b8154815290600101906020018083116103c657829003601f168201915b505050505093508280546103f69061112f565b80601f01602080910402602001604051908101604052809291908181526020018280546104229061112f565b801561046f5780601f106104445761010080835404028352916020019161046f565b820191906000526020600020905b81548152906001019060200180831161045257829003601f168201915b505050505092508180546104829061112f565b80601f01602080910402602001604051908101604052809291908181526020018280546104ae9061112f565b80156104fb5780601f106104d0576101008083540402835291602001916104fb565b820191906000526020600020905b8154815290600101906020018083116104de57829003601f168201915b5050505050915080805461050e9061112f565b80601f016020809104026020016040519081016040528092919081815260200182805461053a9061112f565b80156105875780601f1061055c57610100808354040283529160200191610587565b820191906000526020600020905b81548152906001019060200180831161056a57829003601f168201915b505050505090509a509a509a509a509a509a509a509a50505050919395975091939597565b6000886040516020016105bf91906110b6565b6040516020818303038152906040528051906020012060001c905060008060008381526020019081526020016000208054905014610632576040517f08c379a0000000000000000000000000000000000000000000000000000000008152600401610629906111ac565b60405180910390fd5b60006040518061010001604052808b81526020018a81526020018981526020018881526020018781526020018681526020018581526020018481525090506000808381526020019081526020016000208190806001815401808255809150506001900390600052602060002090600802016000909190919091506000820151816000015560208201518160010190816106cb9190611378565b5060408201518160020190816106e19190611378565b5060608201518160030190816106f79190611378565b50608082015181600401908161070d9190611378565b5060a08201518160050190816107239190611378565b5060c08201518160060190816107399190611378565b5060e082015181600701908161074f9190611378565b5050507fda27456f232db37445478cf15ced32005ab0c946ae0a5b22d2acbb3be8be546b8a8a8a8a8a8a8a8a60405161078f989796959493929190610cdc565b60405180910390a150505050505050505050565b600060205281600052604060002081815481106107bf57600080fd5b9060005260206000209060080201600091509150508060000154908060010180546107e99061112f565b80601f01602080910402602001604051908101604052809291908181526020018280546108159061112f565b80156108625780601f1061083757610100808354040283529160200191610862565b820191906000526020600020905b81548152906001019060200180831161084557829003601f168201915b5050505050908060020180546108779061112f565b80601f01602080910402602001604051908101604052809291908181526020018280546108a39061112f565b80156108f05780601f106108c5576101008083540402835291602001916108f0565b820191906000526020600020905b8154815290600101906020018083116108d357829003601f168201915b5050505050908060030180546109059061112f565b80601f01602080910402602001604051908101604052809291908181526020018280546109319061112f565b801561097e5780601f106109535761010080835404028352916020019161097e565b820191906000526020600020905b81548152906001019060200180831161096157829003601f168201915b5050505050908060040180546109939061112f565b80601f01602080910402602001604051908101604052809291908181526020018280546109bf9061112f565b8015610a0c5780601f106109e157610100808354040283529160200191610a0c565b820191906000526020600020905b8154815290600101906020018083116109ef57829003601f168201915b505050505090806005018054610a219061112f565b80601f0160208091040260200160405190810160405280929190818152602001828054610a4d9061112f565b8015610a9a5780601f10610a6f57610100808354040283529160200191610a9a565b820191906000526020600020905b815481529060010190602001808311610a7d57829003601f168201915b505050505090806006018054610aaf9061112f565b80601f0160208091040260200160405190810160405280929190818152602001828054610adb9061112f565b8015610b285780601f10610afd57610100808354040283529160200191610b28565b820191906000526020600020905b815481529060010190602001808311610b0b57829003601f168201915b505050505090806007018054610b3d9061112f565b80601f0160208091040260200160405190810160405280929190818152602001828054610b699061112f565b8015610bb65780601f10610b8b57610100808354040283529160200191610bb6565b820191906000526020600020905b815481529060010190602001808311610b9957829003601f168201915b5050505050905088565b60015481565b6000604051905090565b600080fd5b600080fd5b6000819050919050565b610bed81610bda565b8114610bf857600080fd5b50565b600081359050610c0a81610be4565b92915050565b600060208284031215610c2657610c25610bd0565b5b6000610c3484828501610bfb565b91505092915050565b610c4681610bda565b82525050565b600081519050919050565b600082825260208201905092915050565b60005b83811015610c86578082015181840152602081019050610c6b565b60008484015250505050565b6000601f19601f8301169050919050565b6000610cae82610c4c565b610cb88185610c57565b9350610cc8818560208601610c68565b610cd181610c92565b840191505092915050565b600061010082019050610cf2600083018b610c3d565b8181036020830152610d04818a610ca3565b90508181036040830152610d188189610ca3565b90508181036060830152610d2c8188610ca3565b90508181036080830152610d408187610ca3565b905081810360a0830152610d548186610ca3565b905081810360c0830152610d688185610ca3565b905081810360e0830152610d7c8184610ca3565b90509998505050505050505050565b600080fd5b600080fd5b7f4e487b7100000000000000000000000000000000000000000000000000000000600052604160045260246000fd5b610dcd82610c92565b810181811067ffffffffffffffff82111715610dec57610deb610d95565b5b80604052505050565b6000610dff610bc6565b9050610e0b8282610dc4565b919050565b600067ffffffffffffffff821115610e2b57610e2a610d95565b5b610e3482610c92565b9050602081019050919050565b82818337600083830152505050565b6000610e63610e5e84610e10565b610df5565b905082815260208101848484011115610e7f57610e7e610d90565b5b610e8a848285610e41565b509392505050565b600082601f830112610ea757610ea6610d8b565b5b8135610eb7848260208601610e50565b91505092915050565b600080600080600080600080610100898b031215610ee157610ee0610bd0565b5b6000610eef8b828c01610bfb565b985050602089013567ffffffffffffffff811115610f1057610f0f610bd5565b5b610f1c8b828c01610e92565b975050604089013567ffffffffffffffff811115610f3d57610f3c610bd5565b5b610f498b828c01610e92565b965050606089013567ffffffffffffffff811115610f6a57610f69610bd5565b5b610f768b828c01610e92565b955050608089013567ffffffffffffffff811115610f9757610f96610bd5565b5b610fa38b828c01610e92565b94505060a089013567ffffffffffffffff811115610fc457610fc3610bd5565b5b610fd08b828c01610e92565b93505060c089013567ffffffffffffffff811115610ff157610ff0610bd5565b5b610ffd8b828c01610e92565b92505060e089013567ffffffffffffffff81111561101e5761101d610bd5565b5b61102a8b828c01610e92565b9150509295985092959890939650565b6000806040838503121561105157611050610bd0565b5b600061105f85828601610bfb565b925050602061107085828601610bfb565b9150509250929050565b600060208201905061108f6000830184610c3d565b92915050565b6000819050919050565b6110b06110ab82610bda565b611095565b82525050565b60006110c2828461109f565b60208201915081905092915050565b7f4e487b7100000000000000000000000000000000000000000000000000000000600052603260045260246000fd5b7f4e487b7100000000000000000000000000000000000000000000000000000000600052602260045260246000fd5b6000600282049050600182168061114757607f821691505b60208210810361115a57611159611100565b5b50919050565b7f536869706d656e7420494420616c726561647920657869737473000000000000600082015250565b6000611196601a83610c57565b91506111a182611160565b602082019050919050565b600060208201905081810360008301526111c581611189565b9050919050565b60008190508160005260206000209050919050565b60006020601f8301049050919050565b600082821b905092915050565b60006008830261122e7fffffffffffffffffffffffffffffffffffffffffffffffffffffffffffffffff826111f1565b61123886836111f1565b95508019841693508086168417925050509392505050565b6000819050919050565b600061127561127061126b84610bda565b611250565b610bda565b9050919050565b6000819050919050565b61128f8361125a565b6112a361129b8261127c565b8484546111fe565b825550505050565b600090565b6112b86112ab565b6112c3818484611286565b505050565b5b818110156112e7576112dc6000826112b0565b6001810190506112c9565b5050565b601f82111561132c576112fd816111cc565b611306846111e1565b81016020851015611315578190505b611329611321856111e1565b8301826112c8565b50505b505050565b600082821c905092915050565b600061134f60001984600802611331565b1980831691505092915050565b6000611368838361133e565b9150826002028217905092915050565b61138182610c4c565b67ffffffffffffffff81111561139a57611399610d95565b5b6113a4825461112f565b6113af8282856112eb565b600060209050601f8311600181146113e257600084156113d0578287015190505b6113da858261135c565b865550611442565b601f1984166113f0866111cc565b60005b82811015611418578489015182556001820191506020850194506020810190506113f3565b868310156114355784890151611431601f89168261133e565b8355505b6001600288020188555050505b50505050505056fea2646970667358221220efc93357026fd454710af4b9fc07cb7d55f8409b253585cda168ed9b06d9d72f64736f6c63430008130033",
  "linkReferences": {},
  "deployedLinkReferences": {}
}