{
  "_format": "hh-sol-artifact-1",
  "contractName": "Traceability",
  "sourceName": "contracts/Traceability.sol",
  "abi": [
    {
      "inputs": [],
      "stateMutability": "nonpayable",
      "type": "constructor"
    },
    {
      "anonymous": false,
      "inputs": [
        {
          "indexed": false,
          "internalType": "uint256",
          "name": "shipmentId",
          "type": "uint256"
        },
        {
          "indexed": false,
          "internalType": "string",
          "name": "productId",
          "type": "string"
        },
        {
          "indexed": false,
          "internalType": "string",
          "name": "productName",
          "type": "string"
        },
        {
          "indexed": false,
          "internalType": "string",
          "name": "category",
          "type": "string"
        },
        {
          "indexed": false,
          "internalType": "string",
          "name": "from",
          "type": "string"
        },
        {
          "indexed": false,
          "internalType": "string",
          "name": "to",
          "type": "string"
        },
        {
          "indexed": false,
          "internalType": "uint256",
          "name": "dateAdded",
          "type": "uint256"
        },
        {
          "indexed": false,
          "internalType": "string",
          "name": "status",
          "type": "string"
        }
      ],
      "name": "ShipmentAdded",
      "type": "event"
    },
    {
      "stateMutability": "payable",
      "type": "fallback"
    },
    {
      "inputs": [
        {
          "internalType": "uint256",
          "name": "_shipmentId",
          "type": "uint256"
        },
        {
          "internalType": "string",
          "name": "_productId",
          "type": "string"
        },
        {
          "internalType": "string",
          "name": "_productName",
          "type": "string"
        },
        {
          "internalType": "string",
          "name": "_category",
          "type": "string"
        },
        {
          "internalType": "string",
          "name": "_from",
          "type": "string"
        },
        {
          "internalType": "string",
          "name": "_to",
          "type": "string"
        },
        {
          "internalType": "uint256",
          "name": "_dateAdded",
          "type": "uint256"
        },
        {
          "internalType": "string",
          "name": "_status",
          "type": "string"
        }
      ],
      "name": "addShipment",
      "outputs": [],
      "stateMutability": "nonpayable",
      "type": "function"
    },
    {
      "inputs": [
        {
          "internalType": "uint256",
          "name": "_shipmentId",
          "type": "uint256"
        }
      ],
      "name": "getShipment",
      "outputs": [
        {
          "internalType": "string",
          "name": "",
          "type": "string"
        },
        {
          "internalType": "string",
          "name": "",
          "type": "string"
        },
        {
          "internalType": "string",
          "name": "",
          "type": "string"
        },
        {
          "internalType": "string",
          "name": "",
          "type": "string"
        },
        {
          "internalType": "string",
          "name": "",
          "type": "string"
        },
        {
          "internalType": "uint256",
          "name": "",
          "type": "uint256"
        },
        {
          "internalType": "string",
          "name": "",
          "type": "string"
        }
      ],
      "stateMutability": "view",
      "type": "function"
    },
    {
      "inputs": [
        {
          "internalType": "uint256",
          "name": "",
          "type": "uint256"
        },
        {
          "internalType": "uint256",
          "name": "",
          "type": "uint256"
        }
      ],
      "name": "shipments",
      "outputs": [
        {
          "internalType": "uint256",
          "name": "shipmentId",
          "type": "uint256"
        },
        {
          "internalType": "string",
          "name": "productId",
          "type": "string"
        },
        {
          "internalType": "string",
          "name": "productName",
          "type": "string"
        },
        {
          "internalType": "string",
          "name": "category",
          "type": "string"
        },
        {
          "internalType": "string",
          "name": "from",
          "type": "string"
        },
        {
          "internalType": "string",
          "name": "to",
          "type": "string"
        },
        {
          "internalType": "uint256",
          "name": "dateAdded",
          "type": "uint256"
        },
        {
          "internalType": "string",
          "name": "status",
          "type": "string"
        }
      ],
      "stateMutability": "view",
      "type": "function"
    },
    {
      "inputs": [],
      "name": "shipmentsCount",
      "outputs": [
        {
          "internalType": "uint256",
          "name": "",
          "type": "uint256"
        }
      ],
      "stateMutability": "view",
      "type": "function"
    }
  ],
  "bytecode": "0x608060405234801561001057600080fd5b506113ce806100206000396000f3fe6080604052600436106100435760003560e01c8063092b374014610046578063642ffca81461008957806367cecd87146100cd5780638784adca146100f857610044565b5b005b34801561005257600080fd5b5061006d60048036038101906100689190610ae8565b610121565b6040516100809796959493929190610bb4565b60405180910390f35b34801561009557600080fd5b506100b060048036038101906100ab9190610c4d565b610518565b6040516100c4989796959493929190610c8d565b60405180910390f35b3480156100d957600080fd5b506100e26108ad565b6040516100ef9190610d35565b60405180910390f35b34801561010457600080fd5b5061011f600480360381019061011a9190610e85565b6108b3565b005b6060806060806060600060606000886040516020016101409190611004565b6040516020818303038152906040528051906020012060001c9050600080600083815260200190815260200160002090506000816000815481106101875761018661101f565b5b9060005260206000209060080201905080600101816002018260030183600401846005018560060154866007018680546101c09061107d565b80601f01602080910402602001604051908101604052809291908181526020018280546101ec9061107d565b80156102395780601f1061020e57610100808354040283529160200191610239565b820191906000526020600020905b81548152906001019060200180831161021c57829003601f168201915b5050505050965085805461024c9061107d565b80601f01602080910402602001604051908101604052809291908181526020018280546102789061107d565b80156102c55780601f1061029a576101008083540402835291602001916102c5565b820191906000526020600020905b8154815290600101906020018083116102a857829003601f168201915b505050505095508480546102d89061107d565b80601f01602080910402602001604051908101604052809291908181526020018280546103049061107d565b80156103515780601f1061032657610100808354040283529160200191610351565b820191906000526020600020905b81548152906001019060200180831161033457829003601f168201915b505050505094508380546103649061107d565b80601f01602080910402602001604051908101604052809291908181526020018280546103909061107d565b80156103dd5780601f106103b2576101008083540402835291602001916103dd565b820191906000526020600020905b8154815290600101906020018083116103c057829003601f168201915b505050505093508280546103f09061107d565b80601f016020809104026020016040519081016040528092919081815260200182805461041c9061107d565b80156104695780601f1061043e57610100808354040283529160200191610469565b820191906000526020600020905b81548152906001019060200180831161044c57829003601f168201915b5050505050925080805461047c9061107d565b80601f01602080910402602001604051908101604052809291908181526020018280546104a89061107d565b80156104f55780601f106104ca576101008083540402835291602001916104f5565b820191906000526020600020905b8154815290600101906020018083116104d857829003601f168201915b505050505090509950995099509950995099509950505050919395979092949650565b6000602052816000526040600020818154811061053457600080fd5b90600052602060002090600802016000915091505080600001549080600101805461055e9061107d565b80601f016020809104026020016040519081016040528092919081815260200182805461058a9061107d565b80156105d75780601f106105ac576101008083540402835291602001916105d7565b820191906000526020600020905b8154815290600101906020018083116105ba57829003601f168201915b5050505050908060020180546105ec9061107d565b80601f01602080910402602001604051908101604052809291908181526020018280546106189061107d565b80156106655780601f1061063a57610100808354040283529160200191610665565b820191906000526020600020905b81548152906001019060200180831161064857829003601f168201915b50505050509080600301805461067a9061107d565b80601f01602080910402602001604051908101604052809291908181526020018280546106a69061107d565b80156106f35780601f106106c8576101008083540402835291602001916106f3565b820191906000526020600020905b8154815290600101906020018083116106d657829003601f168201915b5050505050908060040180546107089061107d565b80601f01602080910402602001604051908101604052809291908181526020018280546107349061107d565b80156107815780601f1061075657610100808354040283529160200191610781565b820191906000526020600020905b81548152906001019060200180831161076457829003601f168201915b5050505050908060050180546107969061107d565b80601f01602080910402602001604051908101604052809291908181526020018280546107c29061107d565b801561080f5780601f106107e45761010080835404028352916020019161080f565b820191906000526020600020905b8154815290600101906020018083116107f257829003601f168201915b50505050509080600601549080600701805461082a9061107d565b80601f01602080910402602001604051908101604052809291908181526020018280546108569061107d565b80156108a35780601f10610878576101008083540402835291602001916108a3565b820191906000526020600020905b81548152906001019060200180831161088657829003601f168201915b5050505050905088565b60015481565b6000886040516020016108c69190611004565b6040516020818303038152906040528051906020012060001c905060008060008381526020019081526020016000208054905014610939576040517f08c379a0000000000000000000000000000000000000000000000000000000008152600401610930906110fa565b60405180910390fd5b60006040518061010001604052808b81526020018a81526020018981526020018881526020018781526020018681526020018581526020018481525090506000808381526020019081526020016000208190806001815401808255809150506001900390600052602060002090600802016000909190919091506000820151816000015560208201518160010190816109d291906112c6565b5060408201518160020190816109e891906112c6565b5060608201518160030190816109fe91906112c6565b506080820151816004019081610a1491906112c6565b5060a0820151816005019081610a2a91906112c6565b5060c0820151816006015560e0820151816007019081610a4a91906112c6565b5050507ffafbe476b1cff13486dfe4eaf944f9f58cc841a56e2c83bdd152f1d1985bfd658a8a8a8a8a8a8a8a604051610a8a989796959493929190610c8d565b60405180910390a150505050505050505050565b6000604051905090565b600080fd5b600080fd5b6000819050919050565b610ac581610ab2565b8114610ad057600080fd5b50565b600081359050610ae281610abc565b92915050565b600060208284031215610afe57610afd610aa8565b5b6000610b0c84828501610ad3565b91505092915050565b600081519050919050565b600082825260208201905092915050565b60005b83811015610b4f578082015181840152602081019050610b34565b60008484015250505050565b6000601f19601f8301169050919050565b6000610b7782610b15565b610b818185610b20565b9350610b91818560208601610b31565b610b9a81610b5b565b840191505092915050565b610bae81610ab2565b82525050565b600060e0820190508181036000830152610bce818a610b6c565b90508181036020830152610be28189610b6c565b90508181036040830152610bf68188610b6c565b90508181036060830152610c0a8187610b6c565b90508181036080830152610c1e8186610b6c565b9050610c2d60a0830185610ba5565b81810360c0830152610c3f8184610b6c565b905098975050505050505050565b60008060408385031215610c6457610c63610aa8565b5b6000610c7285828601610ad3565b9250506020610c8385828601610ad3565b9150509250929050565b600061010082019050610ca3600083018b610ba5565b8181036020830152610cb5818a610b6c565b90508181036040830152610cc98189610b6c565b90508181036060830152610cdd8188610b6c565b90508181036080830152610cf18187610b6c565b905081810360a0830152610d058186610b6c565b9050610d1460c0830185610ba5565b81810360e0830152610d268184610b6c565b90509998505050505050505050565b6000602082019050610d4a6000830184610ba5565b92915050565b600080fd5b600080fd5b7f4e487b7100000000000000000000000000000000000000000000000000000000600052604160045260246000fd5b610d9282610b5b565b810181811067ffffffffffffffff82111715610db157610db0610d5a565b5b80604052505050565b6000610dc4610a9e565b9050610dd08282610d89565b919050565b600067ffffffffffffffff821115610df057610def610d5a565b5b610df982610b5b565b9050602081019050919050565b82818337600083830152505050565b6000610e28610e2384610dd5565b610dba565b905082815260208101848484011115610e4457610e43610d55565b5b610e4f848285610e06565b509392505050565b600082601f830112610e6c57610e6b610d50565b5b8135610e7c848260208601610e15565b91505092915050565b600080600080600080600080610100898b031215610ea657610ea5610aa8565b5b6000610eb48b828c01610ad3565b985050602089013567ffffffffffffffff811115610ed557610ed4610aad565b5b610ee18b828c01610e57565b975050604089013567ffffffffffffffff811115610f0257610f01610aad565b5b610f0e8b828c01610e57565b965050606089013567ffffffffffffffff811115610f2f57610f2e610aad565b5b610f3b8b828c01610e57565b955050608089013567ffffffffffffffff811115610f5c57610f5b610aad565b5b610f688b828c01610e57565b94505060a089013567ffffffffffffffff811115610f8957610f88610aad565b5b610f958b828c01610e57565b93505060c0610fa68b828c01610ad3565b92505060e089013567ffffffffffffffff811115610fc757610fc6610aad565b5b610fd38b828c01610e57565b9150509295985092959890939650565b6000819050919050565b610ffe610ff982610ab2565b610fe3565b82525050565b60006110108284610fed565b60208201915081905092915050565b7f4e487b7100000000000000000000000000000000000000000000000000000000600052603260045260246000fd5b7f4e487b7100000000000000000000000000000000000000000000000000000000600052602260045260246000fd5b6000600282049050600182168061109557607f821691505b6020821081036110a8576110a761104e565b5b50919050565b7f536869706d656e7420494420616c726561647920657869737473000000000000600082015250565b60006110e4601a83610b20565b91506110ef826110ae565b602082019050919050565b60006020820190508181036000830152611113816110d7565b9050919050565b60008190508160005260206000209050919050565b60006020601f8301049050919050565b600082821b905092915050565b60006008830261117c7fffffffffffffffffffffffffffffffffffffffffffffffffffffffffffffffff8261113f565b611186868361113f565b95508019841693508086168417925050509392505050565b6000819050919050565b60006111c36111be6111b984610ab2565b61119e565b610ab2565b9050919050565b6000819050919050565b6111dd836111a8565b6111f16111e9826111ca565b84845461114c565b825550505050565b600090565b6112066111f9565b6112118184846111d4565b505050565b5b818110156112355761122a6000826111fe565b600181019050611217565b5050565b601f82111561127a5761124b8161111a565b6112548461112f565b81016020851015611263578190505b61127761126f8561112f565b830182611216565b50505b505050565b600082821c905092915050565b600061129d6000198460080261127f565b1980831691505092915050565b60006112b6838361128c565b9150826002028217905092915050565b6112cf82610b15565b67ffffffffffffffff8111156112e8576112e7610d5a565b5b6112f2825461107d565b6112fd828285611239565b600060209050601f831160018114611330576000841561131e578287015190505b61132885826112aa565b865550611390565b601f19841661133e8661111a565b60005b8281101561136657848901518255600182019150602085019450602081019050611341565b86831015611383578489015161137f601f89168261128c565b8355505b6001600288020188555050505b50505050505056fea26469706673582212203617bf0927723b5824b110f8dcd6d3e443610335366fde91c76272c04d3fec1964736f6c63430008130033",
  "linkReferences": {},
  "deployedLinkReferences": {}
}