{
  "_format": "hh-sol-artifact-1",
  "contractName": "Traceability",
  "sourceName": "contracts/Traceability.sol",
  "abi": [
    {
      "inputs": [],
      "stateMutability": "nonpayable",
      "type": "constructor"
    },
    {
      "anonymous": false,
      "inputs": [
        {
          "indexed": true,
          "internalType": "uint256",
          "name": "shipmentId",
          "type": "uint256"
        },
        {
          "indexed": false,
          "internalType": "string",
          "name": "productId",
          "type": "string"
        },
        {
          "indexed": false,
          "internalType": "string",
          "name": "productName",
          "type": "string"
        },
        {
          "indexed": false,
          "internalType": "string",
          "name": "category",
          "type": "string"
        },
        {
          "indexed": false,
          "internalType": "string",
          "name": "from",
          "type": "string"
        },
        {
          "indexed": false,
          "internalType": "string",
          "name": "to",
          "type": "string"
        },
        {
          "indexed": true,
          "internalType": "string",
          "name": "dateAdded",
          "type": "string"
        },
        {
          "indexed": false,
          "internalType": "string",
          "name": "status",
          "type": "string"
        }
      ],
      "name": "ShipmentAdded",
      "type": "event"
    },
    {
      "inputs": [
        {
          "indexed": true,
          "internalType": "uint256",
          "name": "_shipmentId",
          "type": "uint256"
        },
        {
          "indexed": false,
          "internalType": "string",
          "name": "_productId",
          "type": "string"
        },
        {
          "indexed": false,
          "internalType": "string",
          "name": "_productName",
          "type": "string"
        },
        {
          "indexed": false,
          "internalType": "string",
          "name": "_category",
          "type": "string"
        },
        {
          "indexed": false,
          "internalType": "string",
          "name": "_from",
          "type": "string"
        },
        {
          "indexed": false,
          "internalType": "string",
          "name": "_to",
          "type": "string"
        },
        {
          "indexed": true,
          "internalType": "string",
          "name": "_dateAdded",
          "type": "string"
        },
        {
          "indexed": false,
          "internalType": "string",
          "name": "_status",
          "type": "string"
        }
      ],
      "name": "addShipment",
      "outputs": [],
      "stateMutability": "nonpayable",
      "type": "function"
    },
    {
      "inputs": [],
      "name": "getAllTransactions",
      "outputs": [
        {
          "components": [
            {
              "indexed": true,
              "internalType": "uint256",
              "name": "shipmentId",
              "type": "uint256"
            },
            {
              "indexed": false,
              "internalType": "string",
              "name": "productId",
              "type": "string"
            },
            {
              "indexed": false,
              "internalType": "string",
              "name": "productName",
              "type": "string"
            },
            {
              "indexed": false,
              "internalType": "string",
              "name": "category",
              "type": "string"
            },
            {
              "indexed": false,
              "internalType": "string",
              "name": "from",
              "type": "string"
            },
            {
              "indexed": false,
              "internalType": "string",
              "name": "to",
              "type": "string"
            },
            {
              "indexed": true,
              "internalType": "uint256",
              "name": "dateAdded",
              "type": "uint256"
            },
            {
              "indexed": false,
              "internalType": "string",
              "name": "status",
              "type": "string"
            }
          ],
          "internalType": "struct Traceability.Shipment[]",
          "name": "",
          "type": "tuple[]"
        }
      ],
      "stateMutability": "view",
      "type": "function"
    },
    {
      "inputs": [
        {
          "internalType": "uint256",
          "name": "_shipmentId",
          "type": "uint256"
        }
      ],
      "name": "getShipment",
      "outputs": [
        {
          "internalType": "string",
          "name": "",
          "type": "string"
        },
        {
          "internalType": "string",
          "name": "",
          "type": "string"
        },
        {
          "internalType": "string",
          "name": "",
          "type": "string"
        },
        {
          "internalType": "string",
          "name": "",
          "type": "string"
        },
        {
          "internalType": "string",
          "name": "",
          "type": "string"
        },
        {
          "internalType": "uint256",
          "name": "",
          "type": "uint256"
        },
        {
          "internalType": "string",
          "name": "",
          "type": "string"
        }
      ],
      "stateMutability": "view",
      "type": "function"
    }
  ],
  "bytecode": "0x608060405234801561001057600080fd5b506000600181905550612c12806100286000396000f3fe608060405234801561001057600080fd5b50600436106100885760003560e01c8063aace20b71161005b578063aace20b71461011c578063cdc881751461013a578063da34f3d514610156578063fd22ae011461018c57610088565b80631a0ac3481461008d57806327506f53146100a95780632952cad8146100c7578063642ffca8146100e3575b600080fd5b6100a760048036038101906100a29190611d61565b6101a8565b005b6100b1610543565b6040516100be91906120f5565b60405180910390f35b6100e160048036038101906100dc9190611d61565b61093c565b005b6100fd60048036038101906100f89190612117565b610cc3565b6040516101139a999897969594939291906121ce565b60405180910390f35b610124610fc1565b6040516101319190612286565b60405180910390f35b610154600480360381019061014f9190611d61565b610fc7565b005b610170600480360381019061016b91906122a1565b61134e565b60405161018397969594939291906122ea565b60405180910390f35b6101a660048036038101906101a19190612375565b61163a565b005b6000846040516020016101bb919061249c565b6040516020818303038152906040528051906020012060001c9050600080600083815260200190815260200160002090506000818054905011610233576040517f08c379a000000000000000000000000000000000000000000000000000000000815260040161022a906124ff565b60405180910390fd5b6000816000815481106102495761024861251f565b5b90600052602060002090600a020190506002600481111561026d5761026c611ef9565b5b8160090160009054906101000a900460ff16600481111561029157610290611ef9565b5b146102d1576040517f08c379a00000000000000000000000000000000000000000000000000000000081526004016102c89061259a565b60405180910390fd5b858160030190816102e291906127c6565b50848160040190816102f491906127c6565b50878160010160006101000a81548173ffffffffffffffffffffffffffffffffffffffff021916908373ffffffffffffffffffffffffffffffffffffffff16021790555060038160090160006101000a81548160ff021916908360048111156103605761035f611ef9565b5b021790555042816008018190555083816007018190555060005b6002805490508110156104df5787604051602001610398919061249c565b60405160208183030381529060405280519060200120600282815481106103c2576103c161251f565b5b90600052602060002090600a02016005016040516020016103e3919061291b565b60405160208183030381529060405280519060200120036104cc576000600282815481106104145761041361251f565b5b90600052602060002090600a02019050338160010160006101000a81548173ffffffffffffffffffffffffffffffffffffffff021916908373ffffffffffffffffffffffffffffffffffffffff16021790555060038160090160006101000a81548160ff0219169083600481111561048f5761048e611ef9565b5b0217905550878160030190816104a591906127c6565b50868160040190816104b791906127c6565b50428160080181905550858160070181905550505b80806104d790612961565b91505061037a565b508773ffffffffffffffffffffffffffffffffffffffff167f751b68621dfbf39b13d143a32951cd01167b96f3ffd2dc0978ade16daa3c595788888888426002604051610531969594939291906129a9565b60405180910390a25050505050505050565b60606002805480602002602001604051908101604052809291908181526020016000905b8282101561093357838290600052602060002090600a0201604051806101400160405290816000820160009054906101000a900473ffffffffffffffffffffffffffffffffffffffff1673ffffffffffffffffffffffffffffffffffffffff1673ffffffffffffffffffffffffffffffffffffffff1681526020016001820160009054906101000a900473ffffffffffffffffffffffffffffffffffffffff1673ffffffffffffffffffffffffffffffffffffffff1673ffffffffffffffffffffffffffffffffffffffff1681526020016002820160009054906101000a900473ffffffffffffffffffffffffffffffffffffffff1673ffffffffffffffffffffffffffffffffffffffff1673ffffffffffffffffffffffffffffffffffffffff16815260200160038201805461069d906125e9565b80601f01602080910402602001604051908101604052809291908181526020018280546106c9906125e9565b80156107165780601f106106eb57610100808354040283529160200191610716565b820191906000526020600020905b8154815290600101906020018083116106f957829003601f168201915b5050505050815260200160048201805461072f906125e9565b80601f016020809104026020016040519081016040528092919081815260200182805461075b906125e9565b80156107a85780601f1061077d576101008083540402835291602001916107a8565b820191906000526020600020905b81548152906001019060200180831161078b57829003601f168201915b505050505081526020016005820180546107c1906125e9565b80601f01602080910402602001604051908101604052809291908181526020018280546107ed906125e9565b801561083a5780601f1061080f5761010080835404028352916020019161083a565b820191906000526020600020905b81548152906001019060200180831161081d57829003601f168201915b50505050508152602001600682018054610853906125e9565b80601f016020809104026020016040519081016040528092919081815260200182805461087f906125e9565b80156108cc5780601f106108a1576101008083540402835291602001916108cc565b820191906000526020600020905b8154815290600101906020018083116108af57829003601f168201915b5050505050815260200160078201548152602001600882015481526020016009820160009054906101000a900460ff16600481111561090e5761090d611ef9565b5b60048111156109205761091f611ef9565b5b8152505081526020019060010190610567565b50505050905090565b60008460405160200161094f919061249c565b6040516020818303038152906040528051906020012060001c90506000806000838152602001908152602001600020905060008180549050116109c7576040517f08c379a00000000000000000000000000000000000000000000000000000000081526004016109be906124ff565b60405180910390fd5b6000816000815481106109dd576109dc61251f565b5b90600052602060002090600a0201905060006004811115610a0157610a00611ef9565b5b8160090160009054906101000a900460ff166004811115610a2557610a24611ef9565b5b14610a65576040517f08c379a0000000000000000000000000000000000000000000000000000000008152600401610a5c90612a6b565b60405180910390fd5b85816003019081610a7691906127c6565b5084816004019081610a8891906127c6565b50878160010160006101000a81548173ffffffffffffffffffffffffffffffffffffffff021916908373ffffffffffffffffffffffffffffffffffffffff16021790555060018160090160006101000a81548160ff02191690836004811115610af457610af3611ef9565b5b021790555083816007018190555060005b600280549050811015610c615787604051602001610b23919061249c565b6040516020818303038152906040528051906020012060028281548110610b4d57610b4c61251f565b5b90600052602060002090600a0201600501604051602001610b6e919061291b565b6040516020818303038152906040528051906020012003610c4e57600060028281548110610b9f57610b9e61251f565b5b90600052602060002090600a02019050338160010160006101000a81548173ffffffffffffffffffffffffffffffffffffffff021916908373ffffffffffffffffffffffffffffffffffffffff16021790555060018160090160006101000a81548160ff02191690836004811115610c1a57610c19611ef9565b5b021790555087816003019081610c3091906127c6565b5086816004019081610c4291906127c6565b50858160070181905550505b8080610c5990612961565b915050610b05565b503373ffffffffffffffffffffffffffffffffffffffff167f1cac7d289fefb13f947922cab9b15b28be0d1d1c9b361be241357c12c2a541ef888888886001604051610cb1959493929190612a8b565b60405180910390a25050505050505050565b60006020528160005260406000208181548110610cdf57600080fd5b90600052602060002090600a0201600091509150508060000160009054906101000a900473ffffffffffffffffffffffffffffffffffffffff16908060010160009054906101000a900473ffffffffffffffffffffffffffffffffffffffff16908060020160009054906101000a900473ffffffffffffffffffffffffffffffffffffffff1690806003018054610d75906125e9565b80601f0160208091040260200160405190810160405280929190818152602001828054610da1906125e9565b8015610dee5780601f10610dc357610100808354040283529160200191610dee565b820191906000526020600020905b815481529060010190602001808311610dd157829003601f168201915b505050505090806004018054610e03906125e9565b80601f0160208091040260200160405190810160405280929190818152602001828054610e2f906125e9565b8015610e7c5780601f10610e5157610100808354040283529160200191610e7c565b820191906000526020600020905b815481529060010190602001808311610e5f57829003601f168201915b505050505090806005018054610e91906125e9565b80601f0160208091040260200160405190810160405280929190818152602001828054610ebd906125e9565b8015610f0a5780601f10610edf57610100808354040283529160200191610f0a565b820191906000526020600020905b815481529060010190602001808311610eed57829003601f168201915b505050505090806006018054610f1f906125e9565b80601f0160208091040260200160405190810160405280929190818152602001828054610f4b906125e9565b8015610f985780601f10610f6d57610100808354040283529160200191610f98565b820191906000526020600020905b815481529060010190602001808311610f7b57829003601f168201915b5050505050908060070154908060080154908060090160009054906101000a900460ff1690508a565b60015481565b600084604051602001610fda919061249c565b6040516020818303038152906040528051906020012060001c9050600080600083815260200190815260200160002090506000818054905011611052576040517f08c379a0000000000000000000000000000000000000000000000000000000008152600401611049906124ff565b60405180910390fd5b6000816000815481106110685761106761251f565b5b90600052602060002090600a020190506001600481111561108c5761108b611ef9565b5b8160090160009054906101000a900460ff1660048111156110b0576110af611ef9565b5b146110f0576040517f08c379a00000000000000000000000000000000000000000000000000000000081526004016110e790612b3f565b60405180910390fd5b8581600301908161110191906127c6565b508481600401908161111391906127c6565b50878160010160006101000a81548173ffffffffffffffffffffffffffffffffffffffff021916908373ffffffffffffffffffffffffffffffffffffffff16021790555060028160090160006101000a81548160ff0219169083600481111561117f5761117e611ef9565b5b021790555083816007018190555060005b6002805490508110156112ec57876040516020016111ae919061249c565b60405160208183030381529060405280519060200120600282815481106111d8576111d761251f565b5b90600052602060002090600a02016005016040516020016111f9919061291b565b60405160208183030381529060405280519060200120036112d95760006002828154811061122a5761122961251f565b5b90600052602060002090600a02019050338160010160006101000a81548173ffffffffffffffffffffffffffffffffffffffff021916908373ffffffffffffffffffffffffffffffffffffffff16021790555060028160090160006101000a81548160ff021916908360048111156112a5576112a4611ef9565b5b0217905550878160030190816112bb91906127c6565b50868160040190816112cd91906127c6565b50858160070181905550505b80806112e490612961565b915050611190565b503373ffffffffffffffffffffffffffffffffffffffff167f88ba22e0be46f2a628ae6a20a74c875ce38cf8707af3f1731ca77cbf9cac237388888888600260405161133c959493929190612a8b565b60405180910390a25050505050505050565b6060806060806000806000808860405160200161136b919061249c565b6040516020818303038152906040528051906020012060001c9050600080600083815260200190815260200160002090506000816000815481106113b2576113b161251f565b5b90600052602060002090600a0201905080600301816004018260060183600501846008015485600701548660090160009054906101000a900460ff168680546113fa906125e9565b80601f0160208091040260200160405190810160405280929190818152602001828054611426906125e9565b80156114735780601f1061144857610100808354040283529160200191611473565b820191906000526020600020905b81548152906001019060200180831161145657829003601f168201915b50505050509650858054611486906125e9565b80601f01602080910402602001604051908101604052809291908181526020018280546114b2906125e9565b80156114ff5780601f106114d4576101008083540402835291602001916114ff565b820191906000526020600020905b8154815290600101906020018083116114e257829003601f168201915b50505050509550848054611512906125e9565b80601f016020809104026020016040519081016040528092919081815260200182805461153e906125e9565b801561158b5780601f106115605761010080835404028352916020019161158b565b820191906000526020600020905b81548152906001019060200180831161156e57829003601f168201915b5050505050945083805461159e906125e9565b80601f01602080910402602001604051908101604052809291908181526020018280546115ca906125e9565b80156116175780601f106115ec57610100808354040283529160200191611617565b820191906000526020600020905b8154815290600101906020018083116115fa57829003601f168201915b505050505093509950995099509950995099509950505050919395979092949650565b60008360405160200161164d919061249c565b6040516020818303038152906040528051906020012060001c905060006040518061014001604052803373ffffffffffffffffffffffffffffffffffffffff168152602001600073ffffffffffffffffffffffffffffffffffffffff168152602001600073ffffffffffffffffffffffffffffffffffffffff168152602001888152602001878152602001858152602001868152602001848152602001600081526020016000600481111561170557611704611ef9565b5b81525090506000808381526020019081526020016000208190806001815401808255809150506001900390600052602060002090600a020160009091909190915060008201518160000160006101000a81548173ffffffffffffffffffffffffffffffffffffffff021916908373ffffffffffffffffffffffffffffffffffffffff16021790555060208201518160010160006101000a81548173ffffffffffffffffffffffffffffffffffffffff021916908373ffffffffffffffffffffffffffffffffffffffff16021790555060408201518160020160006101000a81548173ffffffffffffffffffffffffffffffffffffffff021916908373ffffffffffffffffffffffffffffffffffffffff160217905550606082015181600301908161183091906127c6565b50608082015181600401908161184691906127c6565b5060a082015181600501908161185c91906127c6565b5060c082015181600601908161187291906127c6565b5060e0820151816007015561010082015181600801556101208201518160090160006101000a81548160ff021916908360048111156118b4576118b3611ef9565b5b02179055505050600160008154809291906118ce90612961565b919050555060026040518061014001604052803373ffffffffffffffffffffffffffffffffffffffff168152602001600073ffffffffffffffffffffffffffffffffffffffff168152602001600073ffffffffffffffffffffffffffffffffffffffff16815260200189815260200188815260200187815260200186815260200185815260200160008152602001600060048111156119705761196f611ef9565b5b81525090806001815401808255809150506001900390600052602060002090600a020160009091909190915060008201518160000160006101000a81548173ffffffffffffffffffffffffffffffffffffffff021916908373ffffffffffffffffffffffffffffffffffffffff16021790555060208201518160010160006101000a81548173ffffffffffffffffffffffffffffffffffffffff021916908373ffffffffffffffffffffffffffffffffffffffff16021790555060408201518160020160006101000a81548173ffffffffffffffffffffffffffffffffffffffff021916908373ffffffffffffffffffffffffffffffffffffffff1602179055506060820151816003019081611a8691906127c6565b506080820151816004019081611a9c91906127c6565b5060a0820151816005019081611ab291906127c6565b5060c0820151816006019081611ac891906127c6565b5060e0820151816007015561010082015181600801556101208201518160090160006101000a81548160ff02191690836004811115611b0a57611b09611ef9565b5b021790555050503373ffffffffffffffffffffffffffffffffffffffff167f4487f51fabd38cd2fa9256b45ea690bd2e44b1c8b367d7c209822e2dd1c6a9e288888888886000604051611b6296959493929190612b5f565b60405180910390a250505050505050565b6000604051905090565b600080fd5b600080fd5b600073ffffffffffffffffffffffffffffffffffffffff82169050919050565b6000611bb282611b87565b9050919050565b611bc281611ba7565b8114611bcd57600080fd5b50565b600081359050611bdf81611bb9565b92915050565b600080fd5b600080fd5b6000601f19601f8301169050919050565b7f4e487b7100000000000000000000000000000000000000000000000000000000600052604160045260246000fd5b611c3882611bef565b810181811067ffffffffffffffff82111715611c5757611c56611c00565b5b80604052505050565b6000611c6a611b73565b9050611c768282611c2f565b919050565b600067ffffffffffffffff821115611c9657611c95611c00565b5b611c9f82611bef565b9050602081019050919050565b82818337600083830152505050565b6000611cce611cc984611c7b565b611c60565b905082815260208101848484011115611cea57611ce9611bea565b5b611cf5848285611cac565b509392505050565b600082601f830112611d1257611d11611be5565b5b8135611d22848260208601611cbb565b91505092915050565b6000819050919050565b611d3e81611d2b565b8114611d4957600080fd5b50565b600081359050611d5b81611d35565b92915050565b600080600080600060a08688031215611d7d57611d7c611b7d565b5b6000611d8b88828901611bd0565b955050602086013567ffffffffffffffff811115611dac57611dab611b82565b5b611db888828901611cfd565b945050604086013567ffffffffffffffff811115611dd957611dd8611b82565b5b611de588828901611cfd565b935050606086013567ffffffffffffffff811115611e0657611e05611b82565b5b611e1288828901611cfd565b9250506080611e2388828901611d4c565b9150509295509295909350565b600081519050919050565b600082825260208201905092915050565b6000819050602082019050919050565b611e6581611ba7565b82525050565b600081519050919050565b600082825260208201905092915050565b60005b83811015611ea5578082015181840152602081019050611e8a565b60008484015250505050565b6000611ebc82611e6b565b611ec68185611e76565b9350611ed6818560208601611e87565b611edf81611bef565b840191505092915050565b611ef381611d2b565b82525050565b7f4e487b7100000000000000000000000000000000000000000000000000000000600052602160045260246000fd5b60058110611f3957611f38611ef9565b5b50565b6000819050611f4a82611f28565b919050565b6000611f5a82611f3c565b9050919050565b611f6a81611f4f565b82525050565b600061014083016000830151611f896000860182611e5c565b506020830151611f9c6020860182611e5c565b506040830151611faf6040860182611e5c565b5060608301518482036060860152611fc78282611eb1565b91505060808301518482036080860152611fe18282611eb1565b91505060a083015184820360a0860152611ffb8282611eb1565b91505060c083015184820360c08601526120158282611eb1565b91505060e083015161202a60e0860182611eea565b5061010083015161203f610100860182611eea565b50610120830151612054610120860182611f61565b508091505092915050565b600061206b8383611f70565b905092915050565b6000602082019050919050565b600061208b82611e30565b6120958185611e3b565b9350836020820285016120a785611e4c565b8060005b858110156120e357848403895281516120c4858261205f565b94506120cf83612073565b925060208a019950506001810190506120ab565b50829750879550505050505092915050565b6000602082019050818103600083015261210f8184612080565b905092915050565b6000806040838503121561212e5761212d611b7d565b5b600061213c85828601611d4c565b925050602061214d85828601611d4c565b9150509250929050565b61216081611ba7565b82525050565b600082825260208201905092915050565b600061218282611e6b565b61218c8185612166565b935061219c818560208601611e87565b6121a581611bef565b840191505092915050565b6121b981611d2b565b82525050565b6121c881611f4f565b82525050565b6000610140820190506121e4600083018d612157565b6121f1602083018c612157565b6121fe604083018b612157565b8181036060830152612210818a612177565b905081810360808301526122248189612177565b905081810360a08301526122388188612177565b905081810360c083015261224c8187612177565b905061225b60e08301866121b0565b6122696101008301856121b0565b6122776101208301846121bf565b9b9a5050505050505050505050565b600060208201905061229b60008301846121b0565b92915050565b6000602082840312156122b7576122b6611b7d565b5b600082013567ffffffffffffffff8111156122d5576122d4611b82565b5b6122e184828501611cfd565b91505092915050565b600060e0820190508181036000830152612304818a612177565b905081810360208301526123188189612177565b9050818103604083015261232c8188612177565b905081810360608301526123408187612177565b905061234f60808301866121b0565b61235c60a08301856121b0565b61236960c08301846121bf565b98975050505050505050565b600080600080600060a0868803121561239157612390611b7d565b5b600086013567ffffffffffffffff8111156123af576123ae611b82565b5b6123bb88828901611cfd565b955050602086013567ffffffffffffffff8111156123dc576123db611b82565b5b6123e888828901611cfd565b945050604086013567ffffffffffffffff81111561240957612408611b82565b5b61241588828901611cfd565b935050606086013567ffffffffffffffff81111561243657612435611b82565b5b61244288828901611cfd565b925050608061245388828901611d4c565b9150509295509295909350565b600081905092915050565b600061247682611e6b565b6124808185612460565b9350612490818560208601611e87565b80840191505092915050565b60006124a8828461246b565b915081905092915050565b7f50726f6475637420646f6573206e6f7420657869737400000000000000000000600082015250565b60006124e9601683612166565b91506124f4826124b3565b602082019050919050565b60006020820190508181036000830152612518816124dc565b9050919050565b7f4e487b7100000000000000000000000000000000000000000000000000000000600052603260045260246000fd5b7f536869706d656e74206e6f7420696e207472616e7369742e0000000000000000600082015250565b6000612584601883612166565b915061258f8261254e565b602082019050919050565b600060208201905081810360008301526125b381612577565b9050919050565b7f4e487b7100000000000000000000000000000000000000000000000000000000600052602260045260246000fd5b6000600282049050600182168061260157607f821691505b602082108103612614576126136125ba565b5b50919050565b60008190508160005260206000209050919050565b60006020601f8301049050919050565b600082821b905092915050565b60006008830261267c7fffffffffffffffffffffffffffffffffffffffffffffffffffffffffffffffff8261263f565b612686868361263f565b95508019841693508086168417925050509392505050565b6000819050919050565b60006126c36126be6126b984611d2b565b61269e565b611d2b565b9050919050565b6000819050919050565b6126dd836126a8565b6126f16126e9826126ca565b84845461264c565b825550505050565b600090565b6127066126f9565b6127118184846126d4565b505050565b5b818110156127355761272a6000826126fe565b600181019050612717565b5050565b601f82111561277a5761274b8161261a565b6127548461262f565b81016020851015612763578190505b61277761276f8561262f565b830182612716565b50505b505050565b600082821c905092915050565b600061279d6000198460080261277f565b1980831691505092915050565b60006127b6838361278c565b9150826002028217905092915050565b6127cf82611e6b565b67ffffffffffffffff8111156127e8576127e7611c00565b5b6127f282546125e9565b6127fd828285612739565b600060209050601f831160018114612830576000841561281e578287015190505b61282885826127aa565b865550612890565b601f19841661283e8661261a565b60005b8281101561286657848901518255600182019150602085019450602081019050612841565b86831015612883578489015161287f601f89168261278c565b8355505b6001600288020188555050505b505050505050565b600081546128a5816125e9565b6128af8186612460565b945060018216600081146128ca57600181146128df57612912565b60ff1983168652811515820286019350612912565b6128e88561261a565b60005b8381101561290a578154818901526001820191506020810190506128eb565b838801955050505b50505092915050565b60006129278284612898565b915081905092915050565b7f4e487b7100000000000000000000000000000000000000000000000000000000600052601160045260246000fd5b600061296c82611d2b565b91507fffffffffffffffffffffffffffffffffffffffffffffffffffffffffffffffff820361299e5761299d612932565b5b600182019050919050565b600060c08201905081810360008301526129c38189612177565b905081810360208301526129d78188612177565b905081810360408301526129eb8187612177565b90506129fa60608301866121b0565b612a0760808301856121b0565b612a1460a08301846121bf565b979650505050505050565b7f536869706d656e7420616c726561647920696e207472616e7369742e00000000600082015250565b6000612a55601c83612166565b9150612a6082612a1f565b602082019050919050565b60006020820190508181036000830152612a8481612a48565b9050919050565b600060a0820190508181036000830152612aa58188612177565b90508181036020830152612ab98187612177565b90508181036040830152612acd8186612177565b9050612adc60608301856121b0565b612ae960808301846121bf565b9695505050505050565b7f536869706d656e7420646f6573206e6f74207175616c69747920636865636b2e600082015250565b6000612b29602083612166565b9150612b3482612af3565b602082019050919050565b60006020820190508181036000830152612b5881612b1c565b9050919050565b600060c0820190508181036000830152612b798189612177565b90508181036020830152612b8d8188612177565b90508181036040830152612ba18187612177565b90508181036060830152612bb58186612177565b9050612bc460808301856121b0565b612bd160a08301846121bf565b97965050505050505056fea26469706673582212201fda874d611f6f3e3cac50c77ad165e5a66e94f9afe78ebc596c81af65ada99264736f6c63430008130033",
  "linkReferences": {},
  "deployedLinkReferences": {}
}