{
  "_format": "hh-sol-artifact-1",
  "contractName": "Traceability",
  "sourceName": "contracts/Traceability.sol",
  "abi": [
    {
      "inputs": [],
      "stateMutability": "nonpayable",
      "type": "constructor"
    },
    {
      "anonymous": false,
      "inputs": [
        {
          "indexed": false,
          "internalType": "string",
          "name": "productId",
          "type": "string"
        },
        {
          "indexed": false,
          "internalType": "string",
          "name": "productName",
          "type": "string"
        },
        {
          "indexed": false,
          "internalType": "string",
          "name": "category",
          "type": "string"
        },
        {
          "indexed": false,
          "internalType": "string",
          "name": "from",
          "type": "string"
        },
        {
          "indexed": false,
          "internalType": "string",
          "name": "to",
          "type": "string"
        },
        {
          "indexed": false,
          "internalType": "string",
          "name": "dateAdded",
          "type": "string"
        },
        {
          "indexed": false,
          "internalType": "string",
          "name": "status",
          "type": "string"
        }
      ],
      "name": "ShipmentAdded",
      "type": "event"
    },
    {
      "stateMutability": "payable",
      "type": "fallback"
    },
    {
      "inputs": [
        {
          "internalType": "string",
          "name": "_productId",
          "type": "string"
        },
        {
          "internalType": "string",
          "name": "_productName",
          "type": "string"
        },
        {
          "internalType": "string",
          "name": "_category",
          "type": "string"
        },
        {
          "internalType": "string",
          "name": "_from",
          "type": "string"
        },
        {
          "internalType": "string",
          "name": "_to",
          "type": "string"
        },
        {
          "internalType": "string",
          "name": "_dateAdded",
          "type": "string"
        },
        {
          "internalType": "string",
          "name": "_status",
          "type": "string"
        }
      ],
      "name": "addShipment",
      "outputs": [],
      "stateMutability": "nonpayable",
      "type": "function"
    },
    {
      "inputs": [
        {
          "internalType": "string",
          "name": "_productId",
          "type": "string"
        }
      ],
      "name": "getAllShipmentWithId",
      "outputs": [
        {
          "internalType": "string[]",
          "name": "",
          "type": "string[]"
        },
        {
          "internalType": "string[]",
          "name": "",
          "type": "string[]"
        },
        {
          "internalType": "string[]",
          "name": "",
          "type": "string[]"
        },
        {
          "internalType": "string[]",
          "name": "",
          "type": "string[]"
        },
        {
          "internalType": "string[]",
          "name": "",
          "type": "string[]"
        },
        {
          "internalType": "string[]",
          "name": "",
          "type": "string[]"
        },
        {
          "internalType": "string[]",
          "name": "",
          "type": "string[]"
        }
      ],
      "stateMutability": "view",
      "type": "function"
    },
    {
      "inputs": [
        {
          "internalType": "string",
          "name": "_productId",
          "type": "string"
        }
      ],
      "name": "getShipment",
      "outputs": [
        {
          "internalType": "string",
          "name": "",
          "type": "string"
        },
        {
          "internalType": "string",
          "name": "",
          "type": "string"
        },
        {
          "internalType": "string",
          "name": "",
          "type": "string"
        },
        {
          "internalType": "string",
          "name": "",
          "type": "string"
        },
        {
          "internalType": "string",
          "name": "",
          "type": "string"
        },
        {
          "internalType": "string",
          "name": "",
          "type": "string"
        },
        {
          "internalType": "string",
          "name": "",
          "type": "string"
        }
      ],
      "stateMutability": "view",
      "type": "function"
    },
    {
      "inputs": [
        {
          "internalType": "uint256",
          "name": "",
          "type": "uint256"
        },
        {
          "internalType": "uint256",
          "name": "",
          "type": "uint256"
        }
      ],
      "name": "shipments",
      "outputs": [
        {
          "internalType": "string",
          "name": "productId",
          "type": "string"
        },
        {
          "internalType": "string",
          "name": "productName",
          "type": "string"
        },
        {
          "internalType": "string",
          "name": "category",
          "type": "string"
        },
        {
          "internalType": "string",
          "name": "from",
          "type": "string"
        },
        {
          "internalType": "string",
          "name": "to",
          "type": "string"
        },
        {
          "internalType": "string",
          "name": "dateAdded",
          "type": "string"
        },
        {
          "internalType": "string",
          "name": "status",
          "type": "string"
        }
      ],
      "stateMutability": "view",
      "type": "function"
    },
    {
      "inputs": [],
      "name": "shipmentsCount",
      "outputs": [
        {
          "internalType": "uint256",
          "name": "",
          "type": "uint256"
        }
      ],
      "stateMutability": "view",
      "type": "function"
    }
  ],
  "bytecode": "0x608060405234801561001057600080fd5b50611e9a806100206000396000f3fe60806040526004361061004e5760003560e01c806362c55b8b14610051578063642ffca81461009457806367cecd87146100d7578063bfa5976414610102578063da34f3d51461012b5761004f565b5b005b34801561005d57600080fd5b5061007860048036038101906100739190611573565b61016e565b60405161008b97969594939291906116fd565b60405180910390f35b3480156100a057600080fd5b506100bb60048036038101906100b691906117d3565b6109f0565b6040516100ce979695949392919061185d565b60405180910390f35b3480156100e357600080fd5b506100ec610e07565b6040516100f9919061190c565b60405180910390f35b34801561010e57600080fd5b5061012960048036038101906101249190611927565b610e0d565b005b34801561013757600080fd5b50610152600480360381019061014d9190611573565b610f98565b604051610165979695949392919061185d565b60405180910390f35b606080606080606080606060008860405160200161018c9190611ac9565b6040516020818303038152906040528051906020012060001c9050600080600083815260200190815260200160002090506000818054905067ffffffffffffffff8111156101dd576101dc611448565b5b60405190808252806020026020018201604052801561021057816020015b60608152602001906001900390816101fb5790505b5090506000828054905067ffffffffffffffff81111561023357610232611448565b5b60405190808252806020026020018201604052801561026657816020015b60608152602001906001900390816102515790505b5090506000838054905067ffffffffffffffff81111561028957610288611448565b5b6040519080825280602002602001820160405280156102bc57816020015b60608152602001906001900390816102a75790505b5090506000848054905067ffffffffffffffff8111156102df576102de611448565b5b60405190808252806020026020018201604052801561031257816020015b60608152602001906001900390816102fd5790505b5090506000858054905067ffffffffffffffff81111561033557610334611448565b5b60405190808252806020026020018201604052801561036857816020015b60608152602001906001900390816103535790505b5090506000868054905067ffffffffffffffff81111561038b5761038a611448565b5b6040519080825280602002602001820160405280156103be57816020015b60608152602001906001900390816103a95790505b5090506000878054905067ffffffffffffffff8111156103e1576103e0611448565b5b60405190808252806020026020018201604052801561041457816020015b60608152602001906001900390816103ff5790505b50905060005b88805490508110156109c65788818154811061043957610438611ae0565b5b9060005260206000209060070201600001805461045590611b3e565b80601f016020809104026020016040519081016040528092919081815260200182805461048190611b3e565b80156104ce5780601f106104a3576101008083540402835291602001916104ce565b820191906000526020600020905b8154815290600101906020018083116104b157829003601f168201915b50505050508882815181106104e6576104e5611ae0565b5b602002602001018190525088818154811061050457610503611ae0565b5b9060005260206000209060070201600101805461052090611b3e565b80601f016020809104026020016040519081016040528092919081815260200182805461054c90611b3e565b80156105995780601f1061056e57610100808354040283529160200191610599565b820191906000526020600020905b81548152906001019060200180831161057c57829003601f168201915b50505050508782815181106105b1576105b0611ae0565b5b60200260200101819052508881815481106105cf576105ce611ae0565b5b906000526020600020906007020160020180546105eb90611b3e565b80601f016020809104026020016040519081016040528092919081815260200182805461061790611b3e565b80156106645780601f1061063957610100808354040283529160200191610664565b820191906000526020600020905b81548152906001019060200180831161064757829003601f168201915b505050505086828151811061067c5761067b611ae0565b5b602002602001018190525088818154811061069a57610699611ae0565b5b906000526020600020906007020160030180546106b690611b3e565b80601f01602080910402602001604051908101604052809291908181526020018280546106e290611b3e565b801561072f5780601f106107045761010080835404028352916020019161072f565b820191906000526020600020905b81548152906001019060200180831161071257829003601f168201915b505050505085828151811061074757610746611ae0565b5b602002602001018190525088818154811061076557610764611ae0565b5b9060005260206000209060070201600401805461078190611b3e565b80601f01602080910402602001604051908101604052809291908181526020018280546107ad90611b3e565b80156107fa5780601f106107cf576101008083540402835291602001916107fa565b820191906000526020600020905b8154815290600101906020018083116107dd57829003601f168201915b505050505084828151811061081257610811611ae0565b5b60200260200101819052508881815481106108305761082f611ae0565b5b9060005260206000209060070201600501805461084c90611b3e565b80601f016020809104026020016040519081016040528092919081815260200182805461087890611b3e565b80156108c55780601f1061089a576101008083540402835291602001916108c5565b820191906000526020600020905b8154815290600101906020018083116108a857829003601f168201915b50505050508382815181106108dd576108dc611ae0565b5b60200260200101819052508881815481106108fb576108fa611ae0565b5b9060005260206000209060070201600601805461091790611b3e565b80601f016020809104026020016040519081016040528092919081815260200182805461094390611b3e565b80156109905780601f1061096557610100808354040283529160200191610990565b820191906000526020600020905b81548152906001019060200180831161097357829003601f168201915b50505050508282815181106109a8576109a7611ae0565b5b602002602001018190525080806109be90611b9e565b91505061041a565b50868686868686869f509f509f509f509f509f509f50505050505050505050919395979092949650565b60006020528160005260406000208181548110610a0c57600080fd5b906000526020600020906007020160009150915050806000018054610a3090611b3e565b80601f0160208091040260200160405190810160405280929190818152602001828054610a5c90611b3e565b8015610aa95780601f10610a7e57610100808354040283529160200191610aa9565b820191906000526020600020905b815481529060010190602001808311610a8c57829003601f168201915b505050505090806001018054610abe90611b3e565b80601f0160208091040260200160405190810160405280929190818152602001828054610aea90611b3e565b8015610b375780601f10610b0c57610100808354040283529160200191610b37565b820191906000526020600020905b815481529060010190602001808311610b1a57829003601f168201915b505050505090806002018054610b4c90611b3e565b80601f0160208091040260200160405190810160405280929190818152602001828054610b7890611b3e565b8015610bc55780601f10610b9a57610100808354040283529160200191610bc5565b820191906000526020600020905b815481529060010190602001808311610ba857829003601f168201915b505050505090806003018054610bda90611b3e565b80601f0160208091040260200160405190810160405280929190818152602001828054610c0690611b3e565b8015610c535780601f10610c2857610100808354040283529160200191610c53565b820191906000526020600020905b815481529060010190602001808311610c3657829003601f168201915b505050505090806004018054610c6890611b3e565b80601f0160208091040260200160405190810160405280929190818152602001828054610c9490611b3e565b8015610ce15780601f10610cb657610100808354040283529160200191610ce1565b820191906000526020600020905b815481529060010190602001808311610cc457829003601f168201915b505050505090806005018054610cf690611b3e565b80601f0160208091040260200160405190810160405280929190818152602001828054610d2290611b3e565b8015610d6f5780601f10610d4457610100808354040283529160200191610d6f565b820191906000526020600020905b815481529060010190602001808311610d5257829003601f168201915b505050505090806006018054610d8490611b3e565b80601f0160208091040260200160405190810160405280929190818152602001828054610db090611b3e565b8015610dfd5780601f10610dd257610100808354040283529160200191610dfd565b820191906000526020600020905b815481529060010190602001808311610de057829003601f168201915b5050505050905087565b60015481565b600087604051602001610e209190611ac9565b6040516020818303038152906040528051906020012060001c905060006040518060e001604052808a81526020018981526020018881526020018781526020018681526020018581526020018481525090506000808381526020019081526020016000208190806001815401808255809150506001900390600052602060002090600702016000909190919091506000820151816000019081610ec39190611d92565b506020820151816001019081610ed99190611d92565b506040820151816002019081610eef9190611d92565b506060820151816003019081610f059190611d92565b506080820151816004019081610f1b9190611d92565b5060a0820151816005019081610f319190611d92565b5060c0820151816006019081610f479190611d92565b5050507fdcd531375f38ce09cfdadc92203a5f7c848e7eddc6e9022a6eba9dc8f4f394fb89898989898989604051610f85979695949392919061185d565b60405180910390a1505050505050505050565b6060806060806060806060600088604051602001610fb69190611ac9565b6040516020818303038152906040528051906020012060001c905060008060008381526020019081526020016000209050600081600081548110610ffd57610ffc611ae0565b5b906000526020600020906007020190508060000181600101826002018360030184600401856005018660060186805461103590611b3e565b80601f016020809104026020016040519081016040528092919081815260200182805461106190611b3e565b80156110ae5780601f10611083576101008083540402835291602001916110ae565b820191906000526020600020905b81548152906001019060200180831161109157829003601f168201915b505050505096508580546110c190611b3e565b80601f01602080910402602001604051908101604052809291908181526020018280546110ed90611b3e565b801561113a5780601f1061110f5761010080835404028352916020019161113a565b820191906000526020600020905b81548152906001019060200180831161111d57829003601f168201915b5050505050955084805461114d90611b3e565b80601f016020809104026020016040519081016040528092919081815260200182805461117990611b3e565b80156111c65780601f1061119b576101008083540402835291602001916111c6565b820191906000526020600020905b8154815290600101906020018083116111a957829003601f168201915b505050505094508380546111d990611b3e565b80601f016020809104026020016040519081016040528092919081815260200182805461120590611b3e565b80156112525780601f1061122757610100808354040283529160200191611252565b820191906000526020600020905b81548152906001019060200180831161123557829003601f168201915b5050505050935082805461126590611b3e565b80601f016020809104026020016040519081016040528092919081815260200182805461129190611b3e565b80156112de5780601f106112b3576101008083540402835291602001916112de565b820191906000526020600020905b8154815290600101906020018083116112c157829003601f168201915b505050505092508180546112f190611b3e565b80601f016020809104026020016040519081016040528092919081815260200182805461131d90611b3e565b801561136a5780601f1061133f5761010080835404028352916020019161136a565b820191906000526020600020905b81548152906001019060200180831161134d57829003601f168201915b5050505050915080805461137d90611b3e565b80601f01602080910402602001604051908101604052809291908181526020018280546113a990611b3e565b80156113f65780601f106113cb576101008083540402835291602001916113f6565b820191906000526020600020905b8154815290600101906020018083116113d957829003601f168201915b505050505090509950995099509950995099509950505050919395979092949650565b6000604051905090565b600080fd5b600080fd5b600080fd5b600080fd5b6000601f19601f8301169050919050565b7f4e487b7100000000000000000000000000000000000000000000000000000000600052604160045260246000fd5b61148082611437565b810181811067ffffffffffffffff8211171561149f5761149e611448565b5b80604052505050565b60006114b2611419565b90506114be8282611477565b919050565b600067ffffffffffffffff8211156114de576114dd611448565b5b6114e782611437565b9050602081019050919050565b82818337600083830152505050565b6000611516611511846114c3565b6114a8565b90508281526020810184848401111561153257611531611432565b5b61153d8482856114f4565b509392505050565b600082601f83011261155a5761155961142d565b5b813561156a848260208601611503565b91505092915050565b60006020828403121561158957611588611423565b5b600082013567ffffffffffffffff8111156115a7576115a6611428565b5b6115b384828501611545565b91505092915050565b600081519050919050565b600082825260208201905092915050565b6000819050602082019050919050565b600081519050919050565b600082825260208201905092915050565b60005b83811015611622578082015181840152602081019050611607565b60008484015250505050565b6000611639826115e8565b61164381856115f3565b9350611653818560208601611604565b61165c81611437565b840191505092915050565b6000611673838361162e565b905092915050565b6000602082019050919050565b6000611693826115bc565b61169d81856115c7565b9350836020820285016116af856115d8565b8060005b858110156116eb57848403895281516116cc8582611667565b94506116d78361167b565b925060208a019950506001810190506116b3565b50829750879550505050505092915050565b600060e0820190508181036000830152611717818a611688565b9050818103602083015261172b8189611688565b9050818103604083015261173f8188611688565b905081810360608301526117538187611688565b905081810360808301526117678186611688565b905081810360a083015261177b8185611688565b905081810360c083015261178f8184611688565b905098975050505050505050565b6000819050919050565b6117b08161179d565b81146117bb57600080fd5b50565b6000813590506117cd816117a7565b92915050565b600080604083850312156117ea576117e9611423565b5b60006117f8858286016117be565b9250506020611809858286016117be565b9150509250929050565b600082825260208201905092915050565b600061182f826115e8565b6118398185611813565b9350611849818560208601611604565b61185281611437565b840191505092915050565b600060e0820190508181036000830152611877818a611824565b9050818103602083015261188b8189611824565b9050818103604083015261189f8188611824565b905081810360608301526118b38187611824565b905081810360808301526118c78186611824565b905081810360a08301526118db8185611824565b905081810360c08301526118ef8184611824565b905098975050505050505050565b6119068161179d565b82525050565b600060208201905061192160008301846118fd565b92915050565b600080600080600080600060e0888a03121561194657611945611423565b5b600088013567ffffffffffffffff81111561196457611963611428565b5b6119708a828b01611545565b975050602088013567ffffffffffffffff81111561199157611990611428565b5b61199d8a828b01611545565b965050604088013567ffffffffffffffff8111156119be576119bd611428565b5b6119ca8a828b01611545565b955050606088013567ffffffffffffffff8111156119eb576119ea611428565b5b6119f78a828b01611545565b945050608088013567ffffffffffffffff811115611a1857611a17611428565b5b611a248a828b01611545565b93505060a088013567ffffffffffffffff811115611a4557611a44611428565b5b611a518a828b01611545565b92505060c088013567ffffffffffffffff811115611a7257611a71611428565b5b611a7e8a828b01611545565b91505092959891949750929550565b600081905092915050565b6000611aa3826115e8565b611aad8185611a8d565b9350611abd818560208601611604565b80840191505092915050565b6000611ad58284611a98565b915081905092915050565b7f4e487b7100000000000000000000000000000000000000000000000000000000600052603260045260246000fd5b7f4e487b7100000000000000000000000000000000000000000000000000000000600052602260045260246000fd5b60006002820490506001821680611b5657607f821691505b602082108103611b6957611b68611b0f565b5b50919050565b7f4e487b7100000000000000000000000000000000000000000000000000000000600052601160045260246000fd5b6000611ba98261179d565b91507fffffffffffffffffffffffffffffffffffffffffffffffffffffffffffffffff8203611bdb57611bda611b6f565b5b600182019050919050565b60008190508160005260206000209050919050565b60006020601f8301049050919050565b600082821b905092915050565b600060088302611c487fffffffffffffffffffffffffffffffffffffffffffffffffffffffffffffffff82611c0b565b611c528683611c0b565b95508019841693508086168417925050509392505050565b6000819050919050565b6000611c8f611c8a611c858461179d565b611c6a565b61179d565b9050919050565b6000819050919050565b611ca983611c74565b611cbd611cb582611c96565b848454611c18565b825550505050565b600090565b611cd2611cc5565b611cdd818484611ca0565b505050565b5b81811015611d0157611cf6600082611cca565b600181019050611ce3565b5050565b601f821115611d4657611d1781611be6565b611d2084611bfb565b81016020851015611d2f578190505b611d43611d3b85611bfb565b830182611ce2565b50505b505050565b600082821c905092915050565b6000611d6960001984600802611d4b565b1980831691505092915050565b6000611d828383611d58565b9150826002028217905092915050565b611d9b826115e8565b67ffffffffffffffff811115611db457611db3611448565b5b611dbe8254611b3e565b611dc9828285611d05565b600060209050601f831160018114611dfc5760008415611dea578287015190505b611df48582611d76565b865550611e5c565b601f198416611e0a86611be6565b60005b82811015611e3257848901518255600182019150602085019450602081019050611e0d565b86831015611e4f5784890151611e4b601f891682611d58565b8355505b6001600288020188555050505b50505050505056fea264697066735822122019e347b5bddb77863fe70a08a9c9de024b8f69f199146181aeed848e4c1ee63864736f6c63430008130033",
  "linkReferences": {},
  "deployedLinkReferences": {}
}